:1000000014C100000C949E310C94C9310C94F4314D
:100010000C941F320C944A320C9475320C94A0321A
:100020000C94CB3233C1000031C100002FC100005D
:100030002DC100002BC1000029C1000027C1000014
:1000400025C1000023C1000021C100001FC1000024
:1000500049C200001BC1000019C100000C94F63217
:1000600015C100000C9415370C944B370FC10000DC
:100070000DC100000BC1000009C1000007C1000054
:1000800005C1000003C1000001C10000FFC0000065
:100090000C94A1370C94D737F9C00000F7C00000CA
:1000A000F5C00000F3C00000F1C00000EFC0000088
:1000B000EDC00000EBC00000E9C00000E7C0000098
:1000C000E5C00000E3C000000C94692C0C942D38AE
:1000D0000C946338DBC000000C94B9380C94EF38F2
:1000E000D5C0000005A84CCDB2D44EB93836A9020F
:1000F0000C50B9918688083CA6AAAA2ABE00000026
:10010000803F00000A0B02090C0D0E0807030401D2
:1001100000000000000000000000000000000000DF
:1001200000000000000000000000000000001211AC
:1001300010000000000000000000000000000000AF
:10014000000000000000000001021020200808103C
:100150002040102040800201020108040201010237
:100160000408102040808040201008040201800410
:10017000020180402010080402010804020101026B
:10018000040810204080010204081020408005056A
:100190000505070508080808020202020A0A0808FD
:1001A000040404040101010101010101030303032B
:1001B00003030303040707070C0C0C0C0C0C0C0CBA
:1001C0000202020206060606060606060B0B0B0BCB
:1001D0000B0B0B0B000020002300260029002C0035
:1001E0002F00320000010000030106010901000098
:1001F0002200250028002B002E00310034000201CF
:100200000000050108010B01000021002400270067
:100210002A002D0030003300010100000401070115
:100220000A01743700388C38183911241FBECFEFFB
:10023000D1E2DEBFCDBF00E00CBF13E0A0E0B2E032
:10024000E8EBF3E700E00BBF02C007900D92AE3D74
:10025000B107D9F72AE0AEEDB3E001C01D92A13C91
:10026000B207E1F711E0C5E1D1E000E006C0219757
:100270000109802FFE010E94A939C131D10780E018
:100280000807A9F70E94652D0C94DA39B9CECF93EF
:10029000DF93882349F0EB0181500E94FD3399835D
:1002A0008883DF91CF910895FB0111821082F9CFED
:1002B0000F931F938B019C0183E03695279517952B
:1002C00007958A95D1F702521C4F462F477021E0BF
:1002D00030E0F90102C0EE0FFF1F4A95E2F7AF01CF
:1002E000F80120812423CB010196211102C090E066
:1002F00080E01F910F9108950F931F938B019C0134
:1003000083E036952795179507958A95D1F76770FD
:1003100081E090E001C0880F6A95EAF7F801E252A7
:10032000FC4F2081452B31F48095822380831F91DF
:100330000F910895822BFACFCF92DF92EF92FF9226
:10034000CF93DF936B017C0160E086E3C816D10494
:10035000E104F10490F486E38C0D0E945A35E60125
:100360002196AE01C701B601C7DFCE01DF91CF9163
:10037000FF90EF90DF90CF9008958C2DEECF8823E3
:1003800041F08150682F70E090E080E050E040E064
:10039000B3CF0895CF92DF92EF92FF920E94403345
:1003A0006B017C018FE10E94C3354091E8035091BD
:1003B000E9036091EA037091EB03892B21F18091AD
:1003C000F6039091F70301969093F7038093F60359
:1003D000D701C601841B950BA60BB70B8093EC03CA
:1003E0009093ED03A093EE03B093EF03C092E80364
:1003F000D092E903E092EA03F092EB03FF90EF90D2
:10040000DF90CF9008958091F6039091F7030197C4
:100410009093F7038093F6034C195D096E097F09E9
:100420004093EC035093ED036093EE037093EF035E
:10043000DDCF0F931F93F801D9019C91DA017C91D4
:10044000781302C0691739F0A081B181891751F082
:100450001197B183A083FA018083D9016C931F9116
:100460000F9108951196F5CF0F931F9369B186B13F
:1004700063FB662760F906EF13E02EEF33E04FEFE2
:1004800053E086FB882780F9D4DF69B189B162FB2C
:10049000662760F904EF13E02CEF33E04DEF53E0F3
:1004A000881F8827881FC5DF6CB18091090165FB13
:1004B000662760F902EF13E02AEF33E04BEF53E0D9
:1004C0008170B7DF6CB18FB16295617000EF13E09E
:1004D00028EF33E049EF53E086958170AADF1F9142
:1004E0000F9108951F920F920FB60F9211240BB621
:1004F0000F922F933F934F935F936F937F938F93BD
:100500009F93AF93BF93EF93FF938091E703811184
:1005100017C0AADF82E08093E703FF91EF91BF91BC
:10052000AF919F918F917F916F915F914F913F918B
:100530002F910F900BBE0F900FBE0F901F9018952C
:100540008150E9CF1092F7031092F60362E082E146
:100550000E945A3562E08FE10E945A3542E050E035
:100560006AEC71E085E00E9424310E944033609380
:10057000E8037093E9038093EA039093EB038FEF12
:100580009FE7A0E0B0E08093EC039093ED03A0938D
:10059000EE03B093EF030895CF92DF92EF92FF92B4
:1005A0000F931F93F894C090EC03D090ED03E0906C
:1005B000EE03F090EF0378940E9440330091E8033B
:1005C0001091E9032091EA033091EB03601B710B5A
:1005D000820B930B97FF04C06FEF7FEF8FEF9FE7C6
:1005E00097018601F7FE07C00027112798010C1913
:1005F0001D092E093F0906171707280739079CF41C
:100600001C141D041E041F043CF0909580957095E9
:1006100061957F4F8F4F9F4F1F910F91FF90EF90EC
:10062000DF90CF900895C701B601F6CFF89480917E
:10063000F6039091F7037894089561E082E20E94B6
:100640005A3561E083E20E945A3561E08CE00E94F5
:100650005A35E1E8F0E08081887F816080830895E9
:10066000CF93DF93EC0160E018161906C4F482E220
:100670000E94963561E083E20E949635BE01D7FF65
:1006800003C07195619571096F3F710519F014F000
:100690006FEF70E08CE0DF91CF910C94203483E217
:1006A0000E94963561E082E2E7CF61E085E20E9438
:1006B0005A3561E084E20E945A3561E088E00E9488
:1006C0005A35E1EAF0E08081887F81608083089577
:1006D000CF93DF93EC0160E018161906C4F485E2AD
:1006E0000E94963561E084E20E949635BE01D7FFF4
:1006F00003C07195619571096F3F710519F014F090
:100700006FEF70E088E0DF91CF910C94203484E2A9
:100710000E94963561E085E2E7CF90E080E00895A1
:100720000F931F93009709F48AC06115710509F4AE
:1007300086C00091F8021091F9022091FA023091DE
:10074000FB020E3F1F4F2F4F3F4F09F06AC0DB01E6
:100750004D915D916D917C914093F8025093F90217
:100760006093FA027093FB024091F8025091F902F3
:100770006091FA027091FB02DC011296ED91FC91FE
:1007800080819181A281B3818093030590930405B8
:10079000A0930505B093060584819581A681B78154
:1007A0008093FF0490930005A0930105B093020588
:1007B00080859185A285B3858093FB049093FC048A
:1007C000A093FD04B093FE0484859585A685B78526
:1007D0008093F7049093F804A093F904B093FA047B
:1007E0001092F3041092F4041092F5041092F6049F
:1007F0000E94041089E290E1909301048093000428
:1008000090930304809302040E94F30E009731F446
:1008100021E030E030930805209307051F910F91E8
:1008200008950091F8021091F9022091FA02309196
:10083000FB02FB01008311832283338395CF8FEF6B
:100840009FEFECCF8F929F92AF92BF92CF92DF92A9
:10085000EF92FF921F93CF93DF934B015C011091B6
:100860000A0582E090E090930805809307058114C3
:100870009104A104B10441F480910A05811104C0DE
:1008800080910905C1E08111C0E0C12CD12C760115
:1008900080910A05811106C080910905811102C06D
:1008A000CC23D9F083E090E090930805809307056E
:1008B000CC2381F1CCE9DFEF111102C00E948E132D
:1008C000CE01DF91CF911F91FF90EF90DF90CF90FD
:1008D000BF90AF909F908F9008956AE070E080E0A5
:1008E00090E00E94653380E1C80E87E2D81EE11CCB
:1008F000F11C8FEF88169806A806B80631F0C1E003
:100900008C149D04AE04BF0408F0C0E080E00E9497
:10091000270FBECFD0E0C0E0CFCFCF92DF92EF92D3
:10092000FF920F931F93CF93DF938F3F910511F0A9
:1009300008F051C02091070530910805233031059A
:1009400039F020910705309108052130310531F447
:1009500024E030E030930805209307056A017B010D
:10096000EC0182309105A8F011E0AE01C701B6019B
:100970000E94F20EAB01BC01CE011123F9F0DF9110
:10098000CF911F910F91FF90EF90DF90CF900C943B
:10099000B3158C01000F111F00501C4FD8018D9111
:1009A0009C91892B09F30E94BD150297E9F6D801A5
:1009B000ED91FC91CE011995182FD7CF0E94D51536
:1009C00090E080E0DF91CF911F910F91FF90EF9029
:1009D000DF90CF9008958FEF9FEFF4CF80E00C94DD
:1009E000270FCF93DF9386E090E0909308058093E4
:1009F00007050E94800FEC01E0E0F4E084E0DF01F5
:100A00001D928A95E9F70E9426131092080510920C
:100A10000705CE01DF91CF910895809109050895D2
:100A20008091F20408956093F8027093F902809324
:100A3000FA029093FB0290E080E008952F923F929B
:100A40004F925F926F927F928F929F92AF92BF92DE
:100A5000CF92DF92EF92FF920F931F93CF93DF938A
:100A6000CDB7DEB7A4970FB6F894DEBF0FBECDBFEB
:100A7000E091CC04F091CD042BED3FE049EC50E443
:100A800060817181828193810E944B302091B002FC
:100A90003091B1024091B2025091B3020E944B30AA
:100AA0000E94AE302091AC023091AD024091AE0276
:100AB0005091AF020E944B306B017C018090A402E8
:100AC0009090A502A090A602B090A702A501940163
:100AD0006091190A70911A0A80911B0A90911C0A60
:100AE0000E945C2E882339F1C501B4010E947F0D5C
:100AF000882309F42FC58091A4029091A502A091AA
:100B0000A602B091A70280939F0A9093A00AA09397
:100B1000A10AB093A20A80919F0A9091A00AA09185
:100B2000A10AB091A20A8093190A90931A0AA0937D
:100B30001B0AB0931C0A7ADDBC01990F880B990B34
:100B40000E94F62E9B01AC016091C4027091C50217
:100B50008091C6029091C7020E944B3060936B0A4D
:100B600070936C0A80936D0A90936E0A60E470E053
:100B700080E090E09DDB90932E0A80932D0A43E065
:100B800050E0BE016F5F7F4F82DB8091550A098183
:100B90001A81882369F0B80190E080E00E94F42E69
:100BA0006093510A7093520A8093530A9093540AA7
:100BB0008090510A9090520AA090530AB090540A23
:100BC00080926F0A9092700AA092710AB092720A93
:100BD000B80190E080E00E94F42EA50194010E94EB
:100BE000F72D2091C8023091C9024091CA0250915C
:100BF000CB020E944B302B013C014092730A509271
:100C0000740A6092750A7092760A80916B0A9091CC
:100C10006C0AA0916D0AB0916E0A8B839C83AD83A0
:100C2000BE838093570A9093580AA093590AB093B1
:100C30005A0A40925B0A50925C0A60925D0A709276
:100C40005E0A9C01AD01C701B6010E94F72D6093B9
:100C5000670A7093680A8093690A90936A0A809180
:100C6000410A9091420AA091430AB091440A8F83AD
:100C70009887A987BA8780937F0A9093800AA09368
:100C8000810AB093820A609174027091750280911A
:100C900076029091770290582F81388549855A8540
:100CA0000E944B304B015C018091450A9091460AAD
:100CB000A091470AB091480A8B879C87AD87BE8771
:100CC0008093830A9093840AA093850AB093860A3E
:100CD000609178027091790280917A0290917B0202
:100CE00090582B853C854D855E850E944B30A50133
:100CF00094010E94F82D4B015C018091490A90916A
:100D00004A0AA0914B0AB0914C0A8B8F9C8FAD8FF1
:100D1000BE8F8093870A9093880AA093890AB09324
:100D20008A0A60917C0270917D0280917E0290918E
:100D30007F0290582B8D3C8D4D8D5E8D0E944B30E7
:100D4000A50194010E94F82D4B015C0180914D0A90
:100D500090914E0AA0914F0AB091500A8F8F98A39C
:100D6000A9A3BAA380938B0A90938C0AA0938D0AAF
:100D7000B0938E0A6091800270918102809182020C
:100D80009091830290582F8D38A149A15AA10E94B9
:100D90004B30A50194010E94F82D4B015C0120917C
:100DA0007002309171024091720250917302C7013A
:100DB000B6010E944B30A50194010E94F82D6B8B67
:100DC0007C8B8D8B9E8BAFE7BAE0BCA3ABA380E599
:100DD000282E82E0382E00E012E01F86188A198A39
:100DE0001A8A1F8A188E198E1A8EEBA1FCA1C19047
:100DF000D190E190F190FCA3EBA3D1012D913D9115
:100E00004D915C91C701B6010E944B309B01AC0132
:100E10006F89788D898D9A8D0E94F82D6F8B788FD0
:100E2000898F9A8FF1012481358146815781C701CD
:100E3000B6010E944B309B01AC016F85788989898E
:100E40009A890E94F82D6F87788B898B9A8B78010D
:100E50000C5F1F4FD70150962D913D914D915C91A4
:100E600053976B857C858D859E850E944B304B0109
:100E70005C01F70120813181428153816F81788546
:100E800089859A850E944B309B01AC01C501B40154
:100E90000E94F82D6B017C01D8015C962D913D914B
:100EA0004D915C915F976B8D7C8D8D8D9E8D0E9499
:100EB0004B309B01AC01C701B6010E94F82D6B01BC
:100EC0007C01F80124A535A546A557A56F8D78A10D
:100ED00089A19AA10E944B309B01AC01C701B601C8
:100EE0000E94F82D6B017C01D801DC962D913D917B
:100EF0004D915C91DF976B897C898D899E890E94D9
:100F00004B309B01AC01C701B6010E94F82DEBA14B
:100F1000FCA16487758786879787F8E02F0E311CC0
:100F200080E192E08017910709F05FCF2F89388D1B
:100F3000498D5A8D6B817C818D819E810E94F72D18
:100F40004B015C012F85388949895A89C301B20157
:100F50000E94F72D6B017C01209184023091850263
:100F60004091860250918702C501B4010E944B3026
:100F700020E030E0A9010E94F82D6B837C838D83F3
:100F80009E83209188023091890240918A0250917B
:100F90008B02C501B4010E944B3020E030E0A90172
:100FA0000E94F82D2B013C0120918C0230918D0282
:100FB00040918E0250918F02C501B4010E944B30C6
:100FC00020E030E0A9010E94F82D6F83788789879F
:100FD0009A87209190023091910240919202509113
:100FE0009302C501B4010E944B3020E030E0A9011A
:100FF0000E94F82D4B015C012091980230919902DA
:1010000040919A0250919B02C701B6010E944B3059
:10101000A30192010E94F82D6B877C878D879E87A4
:1010200020919C0230919D0240919E0250919F021E
:10103000C701B6010E944B302F81388549855A85FA
:101040000E94F82D2B013C012091A0023091A102B9
:101050004091A2025091A302C701B6010E944B30F9
:10106000A50194010E94F82D4B015C01209194028E
:10107000309195024091960250919702C701B601B6
:101080000E944B302B813C814D815E810E94F82D66
:1010900020918F0A3091900A4091910A5091920AC2
:1010A0000E94F82D60937F0A7093800A8093810AD2
:1010B0009093820A2B853C854D855E856091930ACD
:1010C0007091940A8091950A9091960A0E94F82D49
:1010D0006093830A7093840A8093850A9093860AAA
:1010E000A30192016091970A7091980A8091990AE0
:1010F00090919A0A0E94F82D6093870A7093880A4B
:101100008093890A90938A0AA501940160919B0AB1
:1011100070919C0A80919D0A90919E0A0E94F82DE0
:1011200060938B0A70938C0A80938D0A90938E0A39
:101130008F89988DA98DBA8D80935F0A9093600AEC
:10114000A093610AB093620A8F859889A989BA89A8
:101150008093630A9093640AA093650AB093660A29
:10116000C090CC02D090CD02E090CE02F090CF02A1
:101170002B893C894D895E89C701B6010E945C2E8E
:1011800087FFF5C1C092770AD092780AE092790A77
:10119000F0927A0AC090A802D090A902E090AA0228
:1011A000F090AB02A70196016091230A7091240A86
:1011B0008091250A9091260A0E945C2E882331F1A5
:1011C000C701B6019CD4882309F4F1C18091A8021B
:1011D0009091A902A091AA02B091AB028093A30AB8
:1011E0009093A40AA093A50AB093A60A8091A30A9B
:1011F0009091A40AA091A50AB091A60A8093230A0F
:101200009093240AA093250AB093260AC5D90E9478
:10121000F62E2091D4023091D5024091D602509101
:10122000D7020E944B309B01AC0160E070E080E887
:101230009FE30E94602E2091D8023091D902409104
:10124000DA025091DB020E944B3060937B0A70936C
:101250007C0A80937D0A90937E0A2091770A3091D0
:10126000780A4091790A50917A0A6091DC02709173
:10127000DD028091DE029091DF020E944B305B0123
:101280006C01E090E002F090E1020091E202109126
:10129000E3029B01AC01B701C8010E945C2E87FDEF
:1012A00012C0E090E402F090E5020091E602109195
:1012B000E7029501A601B701C8010E944730181640
:1012C00014F075018601B701C8010E94312F6B012E
:1012D0007C016BD4811178C1C701B6013BD4811167
:1012E00073C120E030E040E857E4C701B6010E9436
:1012F0004B2F6B017C0120E030E0A9010E945C2EA5
:1013000087FF65C1C701B60190580E94C82E882783
:101310009927861B970BA4D92091770A3091780AD8
:101320004091790A50917A0A6091E8027091E9023D
:101330008091EA029091EB020E944B302091EC02E6
:101340003091ED024091EE025091EF020E944B303D
:101350005B016C01E090F002F090F1020091F2026A
:101360001091F3029B01AC01B701C8010E945C2EF1
:1013700087FD12C0E090F402F090F5020091F602B1
:101380001091F7029501A601B701C8010E944730EC
:10139000181614F075018601B701C8010E94312F9B
:1013A0006B017C0102D4811118C1C701B601D2D3EF
:1013B000811113C120E030E040E857E4C701B601D5
:1013C0000E944B2F6B017C0120E030E0A9010E94BC
:1013D0005C2E87FF05C1C701B60190580E94C82E38
:1013E00088279927861B970B73D980917F0A909144
:1013F000800AA091810AB091820A8093410A909359
:10140000420AA093430AB093440A8091830A9091C0
:10141000840AA091850AB091860A8093450A909328
:10142000460AA093470AB093480A8091870A909190
:10143000880AA091890AB0918A0A8093490A9093F8
:101440004A0AA0934B0AB0934C0A80918B0A909160
:101450008C0AA0918D0AB0918E0A80934D0A9093C8
:101460004E0AA0934F0AB093500A1092550A8091E9
:101470006F0A9091700AA091710AB091720A8093DC
:10148000510A9093520AA093530AB093540A409180
:10149000C1045091C2046091C3047091C40481E0FE
:1014A00090E03BDA6091B9047091BA048091BB047A
:1014B0009091BC046F5F7F4F8F4F9F4F6093B90433
:1014C0007093BA048093BB049093BC040091CC0445
:1014D0001091CD040E94F42E9B01AC016091BD04DB
:1014E0007091BE048091BF049091C0040E944B3063
:1014F000D8016D937D938D939C9313978091C10434
:101500009091C204A091C304B091C4040196A11D9E
:10151000B11D8093C1049093C204A093C304B093FF
:10152000C404A4960FB6F894DEBF0FBECDBFDF9102
:10153000CF911F910F91FF90EF90DF90CF90BF90D0
:10154000AF909F908F907F906F905F904F903F9063
:101550002F9008956091A4027091A5028091A60237
:101560009091A7023CD3882309F4C5CAD4CAC0907D
:10157000D002D090D102E090D202F090D3022B8919
:101580003C894D895E89C701B6010E944730181613
:101590000CF4F8CD8B899C89AD89BE898093770A3C
:1015A0009093780AA093790AB0937A0AF3CD609168
:1015B000A8027091A9028091AA029091AB020FD368
:1015C000882309F403CE12CEC12CD12C7601C70199
:1015D000B6010E94C82ECB019ECEC12CD12C760123
:1015E000C701B6010E94C82ECB01FECE8F929F92FA
:1015F000AF92BF92CF92DF92EF92FF92CF9384E0AF
:1016000090E046D2EEE1F4E088EBDF011D928A958E
:10161000E9F789EC94E090932504809324048CEC02
:1016200094E090935F0480935E048DEB94E090933C
:10163000330480933204F0938904E0938804F09398
:101640002304E093220481E090E09093CA04809305
:10165000C90482E393E090932904809328048EECDC
:1016600094E09093CD048093CC0480E090E0A0EFD0
:10167000B1E48093C5049093C604A093C704B093CB
:10168000C8048AE097EDA3EABBE38093BD0490937E
:10169000BE04A093BF04B093C00483E396E5ACEF0F
:1016A000B0EB8093A7049093A804A093A904B093EF
:1016B000AA048CEB90E8A1EDBEEF8093AB0490936D
:1016C000AC04A093AD04B093AE048DE89BE5A1EC0F
:1016D000B9E68093AF049093B004A093B104B093A3
:1016E000B2048AE090E2AFEFBBE58093B30490933D
:1016F000B404A093B504B093B60482E194E090934F
:1017000021048093200484E094E090931304809358
:10171000120484E493E0909305048093040490936E
:10172000070480930604909309048093080490931F
:101730000B0480930A0490930D0480930C049093FF
:101740000F0480930E04909311048093100487EB90
:1017500094E0909317048093160487EA94E09093A2
:1017600015048093140480E797E1A0E0B0E0809333
:101770001A0490931B04A0931C04B0931D04E7E586
:10178000FAE080E5DF011D928A95E9F7E3E1FAE0EE
:1017900084E4DF011D928A95E9F78091B40290916B
:1017A000B502A091B602B091B7028093410A90931E
:1017B000420AA093430AB093440A8091B8029091E0
:1017C000B902A091BA02B091BB028093450A9093EE
:1017D000460AA093470AB093480A8091BC029091B0
:1017E000BD02A091BE02B091BF028093490A9093BE
:1017F0004A0AA0934B0AB0934C0A8091C002909180
:10180000C102A091C202B091C30280934D0A90938D
:101810004E0AA0934F0AB093500A81E08093550A74
:101820006091A4027091A5028091A6029091A702F6
:1018300066D1882309F48CC0C090A402D090A50280
:10184000E090A602F090A702C092190AD0921A0A5C
:10185000E0921B0AF0921C0AC12CD12C7601C39491
:10186000C092140AD092150AE092160AF092170A52
:101870000E94A202C1E0C093180A1092270AC092E7
:10188000280AD092290AE0922A0AF0922B0A60E4F0
:1018900070E080E090E00E949C0190932E0A80937B
:1018A0002D0AC0932C0A10921D0A6091A802709113
:1018B000A9028091AA029091AB0221D1882309F458
:1018C00054C08090A8029090A902A090AA02B09063
:1018D000AB028092230A9092240AA092250AB09229
:1018E000260AC12CD12C7601C394C0921E0AD09234
:1018F0001F0AE092200AF092210A0E94A202C1E08F
:10190000C093220A10922F0AC092300AD092310A54
:10191000E092320AF092330A0E941D03C093340A07
:101920001092350AC092360AD092370AE092380AED
:10193000F092390A0E945503C0933A0ACF91FF9062
:10194000EF90DF90CF90BF90AF909F908F900895D1
:101950006091A4027091A5028091A6029091A702C5
:101960003ED1882309F468CF6FCF6091A8027091AF
:10197000A9028091AA029091AB0231D1882309F487
:10198000A0CFA7CF8091130A811103C081E080937B
:10199000130A8091270A81111FC081E08093270AD2
:1019A0008091280A9091290AA0912A0AB0912B0AC5
:1019B0000197A105B10581F480912C0A882361F07B
:1019C00060E470E080E090E00E94580190932E0A5D
:1019D00080932D0A0E94BF0180911D0A811103C0CE
:1019E00081E080931D0A80912F0A811117C081E048
:1019F00080932F0A8091300A9091310AA091320A87
:101A0000B091330A0197A105B10541F48091340AE0
:101A1000882321F090E080E00E9430038091350A15
:101A2000811117C081E08093350A8091360A909128
:101A3000370AA091380AB091390A0197A105B1057A
:101A400041F480913A0A882321F090E080E00C94E0
:101A50006803089560E070E080E89FE7089560E023
:101A600070E080E89FE7089560E070E080E89FEF15
:101A7000089560E070E080E89FEF089560E070E016
:101A800080EC9FEF089560E070E080EC9FEF089598
:101A9000F5DF6093B30A7093B40A8093B50A90930C
:101AA000B60AF1DF6093A70A7093A80A8093A90A87
:101AB0009093AA0ACFDF6093AF0A7093B00A809325
:101AC000B10A9093B20ACBDF6093AB0A7093AC0A71
:101AD0008093AD0A9093AE0AC7DF6093B70A709304
:101AE000B80A8093B90A9093BA0AC3DF6093BB0A1D
:101AF0007093BC0A8093BD0A9093BE0A0895CF925A
:101B0000DF92EF92FF92CF936B017C01AC019B01BE
:101B10006091AF0A7091B00A8091B10A9091B20AB7
:101B20000E945C2EC1E0882371F0A70196016091AC
:101B3000B70A7091B80A8091B90A9091BA0A0E94C6
:101B40005C2E8111C0E08C2FCF91FF90EF90DF9041
:101B5000CF900895CF92DF92EF92FF92CF936B01D7
:101B60007C01AC019B016091AB0A7091AC0A809141
:101B7000AD0A9091AE0A0E945C2EC1E0882371F0FC
:101B8000A70196016091BB0A7091BC0A8091BD0AC1
:101B90009091BE0A0E945C2E8111C0E08C2FCF91E3
:101BA000FF90EF90DF90CF9008950F931F938B01DC
:101BB0009C010027112720783F7701151105204847
:101BC0003F4749F4AB01BC016F77772781E0452B94
:101BD000462B472B09F480E01F910F910895E5CF24
:101BE0004F925F926F927F928F929F92AF92BF922D
:101BF000CF92DF92EF92FF920F931F93F894409051
:101C0000E2045090E3046090E4047090E504C09016
:101C1000D604D090D704E090D804F090D904413095
:101C2000510509F0A4C09B01AC01241935094609EE
:101C3000570929013A010091DE041091DF04209137
:101C4000E0043091E10448015901840C951CA61C64
:101C5000B71C80169106A206B306A0F40091DA0420
:101C60001091DB042091DC043091DD040F5F1F4FE5
:101C70002F4F3F4F0093DA041093DB042093DC04D2
:101C80003093DD048092DE049092DF04A092E004A1
:101C9000B092E1040091DA041091DB042091DC049D
:101CA0003091DD048092E6049092E704A092E8046B
:101CB000B092E9040093EA041093EB042093EC043F
:101CC0003093ED046093E2047093E3048093E404A2
:101CD0009093E504A8E8B3E1A30192010E94B13911
:101CE0006C0D7D1D8E1D9F1D6093D6047093D704CF
:101CF0008093D8049093D9040091F8021091F902CE
:101D00002091FA023091FB020F3F1F4F2F4F3F4FA0
:101D1000F1F00091F8021091F9022091FA0230914D
:101D2000FB020E3F1F4F2F4F3F4F89F0C090F8022C
:101D3000D090F902E090FA02F090FB0221E08C14BE
:101D40009D04AE04BF0408F420E02093F2047894CC
:101D50001F910F91FF90EF90DF90CF90BF90AF90C9
:101D60009F908F907F906F905F904F9008954B0160
:101D70005C0184189508A608B708A3019201261BE8
:101D8000370B480B590B6415750586059705D0F080
:101D900082169306A406B50640F420E030E0A901BF
:101DA00081149104A104B10491F4A8E8B3E10E9464
:101DB000B139A7019601261B370B480B590BCA01F5
:101DC000B901C5CF82169306A406B50670F7A8E838
:101DD000B3E1A50194010E94B1396C0D7D1D8E1DEA
:101DE0009F1DB5CFFDCECF93DF9300D01F92CDB70F
:101DF000DEB71C821B821A8219821092EE041092A6
:101E0000EF041092F0041092F104BE016F5F7F4F57
:101E1000CE0103960E94F42B69817A818B819C818B
:101E20000E94E224009761F4BE016F5F7F4FCE01F4
:101E300003960E94002C69817A818B819C812BD52D
:101E40000F900F900F900F90DF91CF910895FF9218
:101E50000F931F93CF93DF93082F60E070E0CB01C7
:101E60000E946533FF24F3940E94CB23EC01892B5D
:101E700089F010E0CE3F8FEFD80769F0002361F1C1
:101E800060E070E0CB010E94653381E090E0892B37
:101E900059F322C011E022D5EC01892B21F0CE3F6D
:101EA0008FEFD80759F711111EC011E0229609F4DF
:101EB00010E00E947B23EC01892B21F0CE3F8FEFB5
:101EC000D807E1F6111111C011E0CE3F8FEFD8070E
:101ED00009F410E001110BC0CE01DF91CF911F91E9
:101EE0000F91FF90089511E0E4CF11E0F3CF60E08F
:101EF00070E0CB010E9465331F25812F90E0C7CF92
:101F0000CF93DF938091F204882321F060E070E0AA
:101F1000CB0149D632D6D0E0C0E0892B71F06AE01F
:101F200070E080E090E00E94653381E090DF25D68C
:101F30002196C03727E1D20781F724D60E943625A3
:101F400010920A05109209051092030510920405DB
:101F500010920505109206051092FF0410920005DC
:101F600010920105109202051092FB041092FC04DD
:101F70001092FD041092FE041092F7041092F804DF
:101F80001092F9041092FA041092F3041092F404DF
:101F90001092F5041092F6044EEF5FEF6FEF7FEFB3
:101FA0004093F8025093F9026093FA027093FB0297
:101FB0001092F204E6EEF4E028E0DF011D922A958B
:101FC000E9F71092E2041092E3041092E4041092F4
:101FD000E5041092DE041092DF041092E0041092E7
:101FE000E1041092DA041092DB041092DC041092E7
:101FF000DD041092D6041092D7041092D8041092E7
:10200000D904DF91CF91089510921605109217050B
:1020100010921805109219051092150580911E0551
:1020200090911F059093140580931305109212054B
:102030001092110510920D0510920E0510920F05C9
:102040001092100510921B0510921A0590E080E086
:102050000895CF92DF92EF92FF920F931F93CF9349
:102060008C01019709F055C020911E0530911F0584
:10207000809113059091140540911E0550911F0504
:1020800050931405409313052817390781F01092D7
:1020900012051092110510920D0510920E05109266
:1020A0000F051092100510921B0510921A058091D1
:1020B0001E0590911F05019761F580911A05909179
:1020C0001B05892B21F48091FC02811112C08091A3
:1020D0001A0590911B050197E1F480910D059091EF
:1020E0000E05A0910F05B09110050197A105B1054E
:1020F00081F410920D0510920E0510920F051092AA
:1021000010051092FC0282E090E090931B058093F2
:102110001A0580911E0590911F05019709F01CC1B9
:1021200080913405909135058017910709F014C10D
:102130008091300590913105A0913205B091330521
:10214000009709F409C120912F0521110DC040917C
:102150003005509131056091320570913305452B62
:10216000462B472B09F4F8C020911A0530911B0526
:102170002230310509F0F0C0209111052111ECC089
:10218000FC01C080D180E280F38080911505882316
:1021900009F4D3C08091210590912205892B09F47F
:1021A000FEC0209121053091220581E022303105C9
:1021B00009F080E02091210530912205C1E0213015
:1021C000310549F02091210530912205C1E02230EE
:1021D000310509F0C0E0882309F456C020912B0591
:1021E00030912C0540912D0550912E05C701B60167
:1021F0000E94473087FD14C020912B0530912C059B
:1022000040912D0550912E0560911605709117058E
:1022100080911805909119050E945C2E87FD22C0BF
:1022200020912B0530912C0540912D0550912E05C4
:10223000C701B6010E944730181634F520912B05CE
:1022400030912C0540912D0550912E056091160579
:102250007091170580911805909119050E945C2EC8
:10226000811112C08091230590912405A09125052C
:10227000B0912605892B8A2B8B2B19F481E0809352
:10228000120581E080931105CC2309F456C02091FA
:102290002B0530912C0540912D0550912E05C7013D
:1022A000B6010E945C2E87FF14C020912B0530914F
:1022B0002C0540912D0550912E05609116057091C9
:1022C000170580911805909119050E94473087FFE6
:1022D00022C020912B0530912C0540912D05509165
:1022E0002E05C701B6010E945C2E811126C02091E7
:1022F0002B0530912C0540912D0550912E056091B4
:1023000016057091170580911805909119050E9486
:102310004730181694F48091230590912405A091DC
:102320002505B0912605892B8A2B8B2B19F481E08A
:102330008093120581E08093110581E09091110551
:10234000911180E080931505C0921605D092170573
:10235000E0921805F09219050130110509F067C1E6
:1023600080911A0590911B05892BD9F410922005B4
:10237000109211058091FC02882379F082E090E0B0
:1023800090931B0580931A051092FC0220911E0564
:1023900030911F0581E0232BE9F080E01BC081E034
:1023A00009CF1092FC0280912005882349F01092F9
:1023B000120510921B0510921A0510922005EDCF00
:1023C00080911E0590911F05892BE1F080911105E8
:1023D0001092110520911A0530911B05223031050C
:1023E00009F45EC088F42115310509F448C0213094
:1023F000310509F4F3C010921205109211051092E4
:10240000200538C081E0E6CF2330310509F4B1C0A2
:102410002430310581F740910D0550910E056091F2
:102420000F0570911005411551056105710561F0A9
:10243000415051096109710940930D0550930E05F2
:1024400060930F057093100540910D0550910E0596
:1024500060910F0570911005452B462B472BD9F441
:1024600020911C0530911D052130310509F046C031
:102470001092120510921B0510921A050CC0809143
:10248000FC02882341F082E090E090931B0580934A
:102490001A051092FC0210920B0580911205CEC015
:1024A0008823C9F38091230590912405A0912505E7
:1024B000B0912605181619061A061B060CF07DC0E9
:1024C00080911E0590911F05019709F076C08091BB
:1024D000230590912405A0912505B09126058093B0
:1024E0000D0590930E05A0930F05B093100583E0A2
:1024F00090E090931B0580931A05CDCF409127055E
:10250000509128056091290570912A05452B462B8D
:10251000472BA9F01092120580912705909128056C
:10252000A0912905B0912A0580930D0590930E0581
:10253000A0930F05B093100581E090E0DACF8823D7
:1025400099F08091FD029091FE02A091FF02B0915E
:10255000000380930D0590930E05A0930F05B09393
:10256000100584E090E0C5CF1092120582E090E063
:10257000C0CF80910D0590910E05A0910F05B091EF
:1025800010050097A105B10559F00197A109B109FE
:1025900080930D0590930E05A0930F05B093100541
:1025A00080910D0590910E05A0910F05B091100539
:1025B000892B8A2B8B2B09F06ECF8091FD02909195
:1025C000FE02A091FF02B0910003892B8A2B8B2B76
:1025D00009F44ECF81E080931205B3CF40910D05F1
:1025E00050910E0560910F05709110054115510530
:1025F0006105710561F0415051096109710940930C
:102600000D0550930E0560930F05709310054091D2
:102610000D0550910E0560910F0570911005452B29
:10262000462B472B09F037CF8111C7CF9FCF809121
:102630000B05882309F431CF80910C05CF911F91B0
:102640000F91FF90EF90DF90CF90089510921605B4
:102650001092170510921805109219051092150581
:1026600010921B0510921A05109214051092130572
:102670001092350510923405109212051092110532
:1026800010920D0510920E0510920F051092100574
:1026900010920C0510920B05109230051092310526
:1026A000109232051092330510922F0510922B05CF
:1026B00010922C0510922D0510922E0588EE93E0B5
:1026C000A0E0B0E08093FD029093FE02A093FF0291
:1026D000B093000310922705109228051092290547
:1026E00010922A05109223051092240510922505B8
:1026F00010922605109222051092210581E0809308
:10270000FC021092200510921F0510921E051092D7
:102710001D0510921C0590E080E0089580911E0533
:1027200090911F05892BE1F48091FC02882351F0E0
:1027300080912005811106C081E080930C05809373
:102740000B05089580912005882341F08091FC02BB
:10275000811104C010920C0581E0F1CF10920B059D
:10276000089582E090E0FA01918380838FEF9FEFDC
:102770000895CF93DF93EA01009711F00E94562647
:102780001982188290E080E0DF91CF910895DB01FB
:10279000009719F48FEF8C9308952EEF2C93FC0182
:1027A0007096E031F10508F037C08827E552FC4EFD
:1027B0008F4F0C94A9390A14081406140414021437
:1027C0000014FC13FE13FA13F813F613F313EF13AC
:1027D000EB13F1130C1480E311968C93089589E2A6
:1027E000FBCF82E2F9CF11961C92089583E2F4CFD9
:1027F00081E2F2CF81E1F0CF87E2EECF8AE2ECCF47
:1028000080E1EACF84E2E8CF88E2E6CF86E2E4CF57
:1028100081E3E2CF83E3E0CF80E2DECF8091420527
:102820009091430508959093430580934205089540
:1028300080914105089590914105892B8093410530
:102840000895982F909580914105892380934105A3
:10285000089580914005089580913E0590913F052F
:1028600008956115710559F0FB0130E020E070E03A
:1028700060E02417350719F06115710511F0CB01DF
:102880000895A081B181A817B90709F4BF012F5F8E
:102890003F4F3696EECF8091440581111CC060D227
:1028A00066D290933705809336050E94541E0E948D
:1028B000661E90933B0580933A050E94E3220E9496
:1028C000EA22909339058093380581E0809344058E
:1028D00090E080E0089584EF9FEF08958F929F929B
:1028E000AF92BF92CF92DF92EF92FF920F931F931E
:1028F000CF93DF9300D000D000D01F92CDB7DEB7CA
:102900001A86198618861F821E821D821C821B82CF
:102910001A8219828091440507EF1FEF882309F47A
:102920009CC08E010D5F1F4F9E012B5F3F4FAE017C
:10293000495F5F4FBE01675F7F4F90E080E00E947C
:1029400067248C01009721F00596029708F0DBC000
:1029500029853A852115310509F402C1ED80FE80F3
:102960004B815C81B701640F751F8F819885861735
:10297000970708F4F5C0E20EF31ED7019C91903C36
:1029800009F07FC04230510508F47BC011968C914C
:102990004091420550914305452B09F49CC0913F5D
:1029A00008F071C02CE1290F2D3008F48BC02DE206
:1029B000290F203108F489C0903C21F481508230E5
:1029C00008F483C088E3890F8B3008F481C097EC4A
:1029D000C92E93E1D92EE1EBF3E16D817E81AE0149
:1029E0004F5F5F4F89859A8519955C01C114D104A9
:1029F000A1F189809A808114910479F18B819C8165
:102A00008815990508F487C010E000E04B815C81CF
:102A100070E060E0C7010E94D33901151105E9F4A7
:102A200049815A8169857A858D819E81680F791FD8
:102A3000C501F6011995E980FA800D811E812F816B
:102A4000388549855A856FEF7FEF81E090E00E94DD
:102A500002248C01892B09F056C0C8012A960FB6B2
:102A6000F894DEBF0FBECDBFDF91CF911F910F91C4
:102A7000FF90EF90DF90CF90BF90AF909F908F909E
:102A8000089580E085CF30E020E0220F331FF90168
:102A9000EA5CFA4F0190F081E02D309709F497CF6E
:102AA000892F90E01995009709F491CFDC011296D7
:102AB000ED91FC9113971496CD90DC90309709F02E
:102AC0008CCF1FC021E030E0E0CF22E030E0DDCF4E
:102AD00023E030E0DACFD12CC12CE9EBF3E19F3FCA
:102AE00009F07BCFE0913605F0913705309721F45E
:102AF000C90104EF1FEF0CC08FEF90E0199500970C
:102B0000A9F604EF1FEF89859A85009709F4A5CFF0
:102B10000E945626A2CF0E9431258C0189859A8574
:102B20000E94562670E060E0C4010E94CA24988783
:102B30008F830E94FF239E838D836F81788561152B
:102B4000710559F0C8010E94E2279A87898706EF2C
:102B50001FEF892B09F058CF59CF08EF1FEF56CF41
:102B600008EF1FEFD0CF20914405222319F020E079
:102B70000C946B1E87EF9FEF089580914205909112
:102B8000430508950E94EF220E944922F5D0E6E312
:102B9000F5E088E0DF011D928A95E9F7109244057F
:102BA00090E080E008950C94A72021E040E050E000
:102BB000BA010C946B1E86E090E0FA019183808349
:102BC00090E080E0089547E050E067E473E049CE8C
:102BD000DF92EF92FF920F931F93CF93DF938A01BF
:102BE000EC01C60FD71FE0904805F0904905D98049
:102BF0000E941925D816190678F082E090E0F801B5
:102C0000918380838EEF9FEFDF91CF911F910F9182
:102C1000FF90EF90DF900895EF2841F482E090E07C
:102C2000F8019183808384EF9FEFEECF89818093B9
:102C3000470590E00196F8019183808390E080E061
:102C4000E3CFCF93DF93EA010E945821882321F03C
:102C50000E9426250E94592182E090E09983888372
:102C60008BEF9FEFDF91CF910895CF93DF93EB012F
:102C700086E0FB0111928A95E9F78FEF8883D8DD12
:102C80008983E7DD8A83E8DD9D838C83DF91CF91A3
:102C90000895CF93DF93EA010E945B21811109C05F
:102CA00082E090E09983888385EF9FEFDF91CF9159
:102CB000089590E080E0B7DD81E090E0998388831B
:102CC00090E080E0F3CF0F931F93CF93DF93EA015F
:102CD0008C01060F171F0E945B2181110BC082E03F
:102CE00090E09983888385EF9FEFDF91CF911F91CB
:102CF0000F910895F8018181823038F082E090E0F0
:102D0000998388838EEF9FEFF0CF81E090E08BDD99
:102D100088E090E09983888390E080E0E6CFCF93CD
:102D2000DF930097D1F4EB01FB01329686E0DF01DF
:102D30001D928A95E9F78FEF888385E089831A824F
:102D40000E9419258B830E9418259D838C8381E026
:102D50008E838F83DF91CF910895DF91CF9117CD2F
:102D600083EE95E190934605809345050895809103
:102D70004505909146050895109246051092450527
:102D8000089580914805909149050895411105C025
:102D9000611571058105910561F060934805709397
:102DA000490580934A0590934B0540934C0581E07B
:102DB000089580E00895FF920F931F93CF93DF93C0
:102DC0008A01EC01C60FD71FF9800E941925F81659
:102DD000190668F082E090E0F801918380838EEF1D
:102DE0009FEFDF91CF911F910F91FF9008956C811C
:102DF0007D818E819F814B81C9DF811108C082E076
:102E000090E0F8019183808384EF9FEFEACF89817E
:102E10008093470590E00196F8019183808390E0CC
:102E200080E0DFCFCF93DF93EA01FC01E60FF71FCD
:102E300064817581868197814381A8DF811109C0F2
:102E400082E090E09983888384EF9FEFDF91CF91B8
:102E5000089581E090E09983888390E080E0F6CF48
:102E6000E8E4F5E04081518162817381480F511D92
:102E7000611D711D40835183628373830895CF93D5
:102E8000C09147054C2F50E060914805709149056D
:102E900001960E94CA398C2FE3DF10924705CF912B
:102EA0000895009799F480914805909149052FEF76
:102EB000FB012083892B59F02091470530E02F5FDB
:102EC0003F4F2417350719F4CB01D9CF60CC0895B3
:102ED000009799F480914805909149052FEFFB01E7
:102EE0002083892B59F02091470530E02F5F3F4F19
:102EF0002417350719F4CB01C2CF49CC089523E13B
:102F0000AC01249FC001259F900D1124E091510533
:102F1000F0915205E80FF91F2381348122503109C5
:102F200081E02230310508F080E008950F931F936F
:102F3000CF93DF930091530510915405D0E0C0E08A
:102F400080E00C171D0749F491E0811190E0892F72
:102F5000DF91CF911F910F9108958111F5CFCE018F
:102F6000CEDF2196EECFA0915105B091520510977A
:102F700029F1209153053091540582179307F0F4FD
:102F800053E1589F9001599F300D1124A20FB31F98
:102F9000ED91FC911197309789F012968C916817FA
:102FA00068F48DE0689FE00DF11D1124808191810E
:102FB000892B21F081E09281491708F080E0089583
:102FC0009C0143E1429FC001439F900D1124E09179
:102FD0005105F0915205E80FF91F8385823091F475
:102FE00081E090E065817681409101035091020378
:102FF0006417750711F490E080E0892B19F081E0E7
:10300000232B09F080E00895FC01A081B1818DE0BF
:10301000689FA00DB11D112413964D915C9185857B
:103020009685489F9001499F300D589F300D11247F
:10303000C9010196611103C0478144FD04960895BA
:10304000EF92FF920F931F93CF93DF93EA01FC015E
:10305000E60FF71F02811381E480F5804F2D6E2D5E
:10306000C80181DF81110DC082E090E099838883DF
:103070008EEF9FEFDF91CF911F910F91FF90EF9017
:103080000895C8013CDF882339F082E090E09983FD
:10309000888388EF9FEFEECF109308030093070318
:1030A000E0920903F0920A0381E090E0998388831B
:1030B00090E080E0DFCFCF92DF92EF92FF920F930C
:1030C0001F93CF93DF937A01EC01C60FD71FC090F7
:1030D0000703D09008030091090310910A03412FC0
:1030E000602FC60140DF811110C082E090E0F7013F
:1030F000918380838AEF9FEFDF91CF911F910F9192
:10310000FF90EF90DF90CF900895C601F8DE8823FE
:1031100041F082E090E0F7019183808388EF9FEF98
:10312000EBCF4C815D816E817F819A8189818F3F58
:1031300041F082E090E0F701918380838EEF9FEF72
:10314000DBCFE3E1EC9D9001ED9D300D1124E0918A
:103150005105F0915205E20FF31F0190F081E02D2F
:103160002DE0029FE00DF11D11240190F081E02D72
:1031700027E0129FE00DF11D1124808391838B8144
:10318000828343835483658376831F5F10930A038E
:1031900081E090E0F7019183808390E080E0ACCF04
:1031A000EF92FF920F931F93CF93DF937A018C01DD
:1031B000060F171FC0915105D0915205209781F03D
:1031C00021E030E0F80182819381409153055091D4
:1031D00054058417950710F030E020E0232B71F49C
:1031E00082E090E0F701918380838EEF9FEFDF9183
:1031F000CF911F910F91FF90EF90089543E1489F69
:103200009001499F300D1124C20FD31F78DE88230F
:1032100041F082E090E0F7019183808388EF9FEF97
:10322000E6CFF8012481358120383105C8F6878141
:103230008111D6CF4181842F90E08F7E009741F09D
:1032400082E090E0F7019183808386EF9FEFCFCFFC
:103250004F833E832D83268128871986223010F4E0
:1032600021E0288721E030E0F70131832083BFCFC0
:1032700088E090E0FA019183808390E080E00895F7
:10328000FB018FEF808381E181838FEF9FEF938339
:10329000828380E890E09583848316821782089564
:1032A000FB018FEF808391E09183828393838483FA
:1032B00084E3858381E090E097838683089582E0AC
:1032C00090E0FA019183808380EF9FEF0895DF9271
:1032D000EF92FF920F931F93CF93DF93EA01FC01CC
:1032E000E60FF71F8181813071F082E090E09983D1
:1032F00088838FEF9FEFDF91CF911F910F91FF9008
:10330000EF90DF90089582819381D4802581E680BB
:10331000F78000915105109152050115110539F4FE
:1033200082E090E0998388838CEF9FEFE4CF409117
:103330005305509154058417950738F082E090E0CA
:10334000998388838EEF9FEFD6CF892B39F082E067
:1033500090E09983888386EF9FEFCDCF8D2D8D7F71
:10336000B1F72130A1F781E0D11006C091E0E91654
:10337000F10431F080E004C0E2E0EE16F104D0F395
:10338000882329F390E080E0BADD882339F082E0D9
:1033900090E09983888388EF9FEFADCFF801D386C3
:1033A00081E08487F686E586108A178681E090E0C2
:1033B0009983888390E080E09ECF4DE050E061E704
:1033C00073E04FCA8F929F92BF92CF92DF92EF929B
:1033D000FF920F931F93CF93DF93EA01FC01E60F57
:1033E000F71F828193810481B580E0915105F091AE
:1033F0005205309791F482E090E0998388838CEFB6
:103400009FEFDF91CF911F910F91FF90EF90DF9091
:10341000CF90BF909F908F90089520915305309149
:1034200054058217930738F082E090E099838883EF
:103430008EEF9FEFE6CF23E1289F6001299FD00CFC
:103440001124EC0DFD1DE080F180E114F10499F2EE
:103450008281081748F78DE0089F80011124E00E53
:10346000F11EF70180819181892B29F6BB20E1F2C1
:10347000F7E0BF9E40011124C4010E941D26F70100
:1034800091838083E0915105F0915205EC0DFD1D73
:103490000190F081E02DE00FF11F80819181009774
:1034A00039F482E090E0998388838DEF9FEFA9CF74
:1034B000A40170E060E00E94D339809151059091A1
:1034C0005205C80ED91EF60180819181080F191F7F
:1034D000F801B28281E090E09983888390E080E0F7
:1034E00090CFAF92BF92CF92DF92FF920F931F9334
:1034F000CF93DF93EA01FC01E60FF71F82819381EE
:10350000F48000915105109152050115110581F4C7
:1035100082E090E0998388838CEF9FEFDF91CF91D9
:103520001F910F91FF90DF90CF90BF90AF900895C3
:1035300020915305309154058217930738F082E0AB
:1035400090E0998388838EEF9FEFE8CF2FEF2F0DC8
:103550002C3FA8F723E1289F6001299FD00C11245C
:103560000C0D1D1DF80180819181892B89F6FDE0EC
:10357000FF9E50011124C5010E941D26F801918370
:103580008083E0915105F0915205EC0DFD1D808185
:103590009181009739F482E090E0998388838DEFE0
:1035A0009FEFBCCFA50170E060E00E94D339E091AD
:1035B0005105F0915205EC0DFD1DF28281E090E085
:1035C0009983888390E080E0A9CFCF92DF92EF9239
:1035D000FF920F931F93CF93DF93860F971FFC01EA
:1035E000028113818091510590915205892B81F0C0
:1035F00082E090E0FA01918380838CEF9FEFDF916E
:10360000CF911F910F91FF90EF90DF90CF90089591
:10361000C801B0E0A0E00197A109B1098F3F9F4F19
:10362000A105B10540F082E090E0FA01918380832A
:103630008EEF9FEFE4CF7A0183E1809F6001819F4D
:10364000D00C1124C6010E941D26EC01009741F404
:1036500082E090E0F701918380838DEF9FEFCFCFE1
:10366000A60170E060E00E94D339D0935205C09368
:103670005105109354050093530590E080E02FEF1F
:103680003FEF41E061E070E08017910741F481E095
:1036900090E0F7019183808390E080E0B0CF3A8B97
:1036A000298B1B864C877E876D87188A1F8601961B
:1036B0006396EACFEF92FF921F93CF93DF93EC01D3
:1036C00010E0F12CE12C6A811617B0F083E0689FBE
:1036D000B0011124AE014F5E5F4FC7010E948226E8
:1036E000009721F02FEF3FEF3A8B298BDF91CF919D
:1036F0001F91FF90EF900895612FCE0185DC61E06E
:1037000070E00E94CA24E816F90608F47C011F5FE5
:10371000DACFF89420914F053091500581E02115C2
:10372000310509F080E0232B09F0789408952F9259
:103730003F924F925F926F927F928F929F92AF9241
:10374000BF92CF92DF92EF92FF920F931F93CF938E
:10375000DF933C01660E771EF301828193814C0159
:10376000B12CA12CC0915105D0915205209769F040
:1037700021E030E06091530570915405861797075A
:1037800010F030E020E0232BD1F482E090E0FA0149
:10379000918380838EEF9FEFDF91CF911F910F91E7
:1037A000FF90EF90DF90CF90BF90AF909F908F9061
:1037B0007F906F905F904F903F902F9008958092F0
:1037C0000B0390920C03A0920D03B0920E0363E1E1
:1037D000689F9001699F300D1124C20FD31FF30120
:1037E0008181833040F082E090E0FA019183808310
:1037F00086EF9FEFD1CF2A012B813C81232BF1F45F
:10380000288139819F8191FF2EC0232B09F46FC03D
:10381000209156059A81422F490F5527551FBA010D
:1038200041E050E06138710514F050E040E0452B74
:1038300009F45DC02A87920F90935605815082301B
:1038400008F481C066DF882309F4D8C0F3018181C0
:10385000813009F48DC008F47BC0823009F4C6C001
:1038600090E080E0ADC0232B09F441C020915505C4
:103870009A81E22FE90FFF27FF1F41E050E0ED3F63
:10388000F10514F050E040E0452B89F12A87920FB2
:1038900090935505D3CFA081B181A20FB31F11968C
:1038A0006C91060F111D0196295F3F4F84179507F4
:1038B00094F38D859E85089F1001099F300C189FF9
:1038C000300C1124C114D104D1F48F8184FF17C0AE
:1038D0000E941825F5E02F0E311C21E0821593057A
:1038E00008F420E0A701435F5F4F21110EC082E082
:1038F00090E0F2019183808387EF9FEF4DCF0E948C
:1039000018252FEF221A320AE8CF88819981E80E14
:10391000F91EF70114830383FFEFCF1ADF0A7A0140
:103920008A818C151D0409F00CF48CCFE881F98193
:10393000EE0DFF1D428150E030E020E010E000E09D
:1039400090E080E0B3CFF12CE12CD12CC12CE8CF5A
:1039500081E090E09C838B83E9DA882309F480CFAF
:1039600081E090E00E94131480E40E94211478CF3B
:1039700089899A89019661F083E090E09C838B832A
:1039800082E090E00E94131480E40E941B1468CF30
:103990008D819E812091010330910203821793074C
:1039A000D1F46091050370910603AE014F5E5F4F45
:1039B00080910303909104030E94A1270097E1F2F4
:1039C000789422E030E0F20131832083892B99F052
:1039D0008DEF9FEFE1CE89288A288B2869F6029720
:1039E00058F6CE0167DE188A1F86E8CF82E090E0A5
:1039F0009C838B8335CF90E080E0CECE82E090E058
:103A0000F2019183808385EF9FEFC6CE8F929F92C4
:103A1000AF92BF92CF92DF92EF92FF920F931F93DC
:103A2000CF93DF93EA018C01060F171FF801818104
:103A3000833098F082E090E09983888386EF9FEF4F
:103A4000DF91CF911F910F91FF90EF90DF90CF907A
:103A5000BF90AF909F908F90089580915105909165
:103A60005205892B61F081E090E02091530530915F
:103A70005405232B11F490E080E0892B39F482E087
:103A800090E0998388838EEF9FEFDACF42DE882320
:103A900009F4E0C0F8018181813009F496C0E8F0B2
:103AA000823099F42091530530915405E0915105ED
:103AB000F091520590E080E041E050E0281739078E
:103AC00009F0BEC033DA811117C0789481E090E02C
:103AD0009983888390E080E0B3CF209153053091A3
:103AE0005405E0915105F091520590E080E041E0ED
:103AF00050E02817390741F481E090E00E94131448
:103B000080E40E942114E1CF63817481672B11F05E
:103B10005483438301967396ECCFE0915105F09165
:103B20005205E00FF11F2381348122303105D9F491
:103B3000218932892F3F3F4FB1F425813681409151
:103B40000103509102032417350761F5AF014F5E61
:103B50005F4F60910503709106038091030390917C
:103B600004030E94A127EFEFCE1ADE0AEE0AFE0A36
:103B70000D5E1F4F409153055091540570E060E079
:103B8000C416D506E606F70644F5009731F2789498
:103B9000892B09F49BCF82E090E0998388838DEF95
:103BA0009FEF4ECFC114D104E104F104E1F62230BD
:103BB0003105C8F6CF017EDDE0915105F091520547
:103BC000E00FF11F108A1786CECF10E000E090E0E2
:103BD00080E0C12CD12C7601CDCF0097C1F610E04A
:103BE00000E0812C912C540183E0E82EF12C1AC0C6
:103BF000E0915105F0915205E00FF11F838194810E
:103C0000029749F4F482E38282E090E00E94131468
:103C100080E40E941B14FFEF8F1A9F0AAF0ABF0AAD
:103C20000D5E1F4F8091530590915405B0E0A0E0C8
:103C300088169906AA06BB06DCF290E080E0A7CFC2
:103C4000638174816230710511F45483438301965A
:103C5000739634CF82E090E09983888385EF9FEF5D
:103C6000EFCE0097B9F48FEFFB01808320910B0317
:103C700030910C0343E1429FC001439F900D1124FA
:103C8000E0915105F0915205E80FF91F8285FB0183
:103C9000818308950C94C71388E090E0FA01918322
:103CA000808390E080E008951092500510924F05B7
:103CB000E1E5F5E086E0DF011D928A95E9F78DEDFB
:103CC00099E190934E0580934D05089580914D059F
:103CD00090914E0508952F923F924F925F926F926E
:103CE0007F928F929F92AF92BF92CF92DF92EF928C
:103CF000FF920F931F93CF93DF93CDB7DEB72F972C
:103D00000FB6F894DEBF0FBECDBFF894E0914F051B
:103D1000F09150053196F0935005E0934F0578945B
:103D200040905105509052054114510409F40CC2C1
:103D3000E0915305F0915405EF2B09F405C22D874E
:103D400049875A876B877C8798878F831201B12CAC
:103D5000A12C10E000E08091530590915405A81625
:103D6000B90618F40115110529F1F89480914F0551
:103D70009091500501979093500580934F0578944A
:103D8000C8012F960FB6F894DEBF0FBECDBFDF91EE
:103D9000CF911F910F91FF90EF90DF90CF90BF9048
:103DA000AF909F908F907F906F905F904F903F90DB
:103DB0002F9008957101E418F508D10117968C91A0
:103DC000179781FD54C013968D919C91149703977A
:103DD00009F04DC015968D919C91EF81F8858E1755
:103DE0009F0709F044C0B50190E080E07FD48A834A
:103DF00020915105309152053D832C833D8533231D
:103E000009F44CC04C815D81452B09F49AC1809125
:103E1000530590915405A816B90608F092C1C50142
:103E2000CFD88823E9F06C817D816E0D7F1D7D8365
:103E30006C83DB011F968D919C91892B89F0D12C8D
:103E4000C12CF12CE12CAC81BD8112968C91129782
:103E50008E151F0409F094F450961C921E921F9721
:103E60002A81222321F0B50190E080E041D43FEF88
:103E7000A31AB30A43E1240E311C6DCFAC81BD817E
:103E8000ED91FC91EC0DFD1D858196810FD7BFEF63
:103E9000EB1AFB0AEDE0CE0ED11CD5CFEC81FD81F3
:103EA000309709F44EC18091530590915405A8169E
:103EB000B90608F046C1EE0DFF1DFF87EE87C5016C
:103EC0007FD88B83882339F1AE85BF851F968D916E
:103ED0009C915097019621E01D964D915C9184171D
:103EE000950709F020E02E831982712C10E000E084
:103EF000AE85BF8512968C91781608F45DC0EE856C
:103F0000FF85878590890196658576850E9473393E
:103F1000908B8787A5CFB1E0BE83E6CF9924939499
:103F20006BC08BD6F6019683858382C0D601ED9057
:103F3000FC90B7E06B9EE00CF11C1124F70163814B
:103F4000748180818F3F61F121E030E002C0220F57
:103F5000331F8A95E2F7C901092E000CAA0BBB0B8F
:103F6000FB01408151816281738184239523A623C3
:103F7000B72321E0892B8A2B8B2B09F420E0D40175
:103F80002C93D70111968C91F60123853485820FED
:103F9000932F911D880E991E1486138663949BC0DF
:103FA000418150E0C4010E94CA39EBCF998206EFEB
:103FB0001FEFC5C01982C3C0F981F111A0CFEDE098
:103FC0007E9E70011124AE85BF85CD90DC90CE0C15
:103FD000DF1C15D49D838C83BB81BB2309F49ECF4A
:103FE00081E0EE85FF8527853089232B09F080E06D
:103FF000982E882309F458C0672D8E859F8504D894
:10400000D60118969C938E93179761E070E0C2D406
:10401000EE85FF85218932892F3F320709F481CF50
:10402000BC01C901CFD7D60116969C938E931597E4
:10403000D60115968D919C911697009709F4B6CFED
:10404000EC81FD818E0F9F1F1A969C938E9319977A
:10405000AE85BF85ED91FC911197EE0EFF1EF70125
:1040600021853285148613861A968C91870DD90185
:104070008D93711016C0EE85FF85878184FF11C076
:1040800049855A856B857C85F90141835283638319
:104090007483F701838594850496A80FB91F14864D
:1040A0001386F701B287A187D60115968D919C9151
:1040B0001697892B09F443C0EE85FF85258136814B
:1040C00080910103909102032817390779F019961E
:1040D0008D909C90612CD60112968C911297681647
:1040E00008F424CF1A969C928E921997BE81BB2316
:1040F00009F460CF61E070E0F601878190854AD4D1
:10410000D6011796ED90FC90189715964D915C91FD
:10411000E1E0F0E0BA81BB2311F0F0E0E0E00C81D7
:104120001D819C01B501882799278E1B9F0B6AD39F
:104130008C01892B21F0F60185819681B7D5739486
:10414000D7CE0FEF1FEF8CCE10E000E00ECE2F92F7
:104150003F924F925F926F927F928F929F92AF9217
:10416000BF92CF92DF92EF92FF920F931F93CF9364
:10417000DF93809151059091520510E000E0892B6A
:10418000A9F0C7DA0AEF1FEF882381F020905305CA
:1041900030905405C0915105D0915205D12CC12CBD
:1041A00010E000E02C143D04A9F47894C801DF91DC
:1041B000CF911F910F91FF90EF90DF90CF90BF9024
:1041C000AF909F908F907F906F905F904F903F90B7
:1041D0002F900895C6010E94E017882309F18B8172
:1041E0009C810397E9F48F859889892BC9F0B601E2
:1041F00090E080E07BD221E030E0882311F030E0D5
:1042000020E044245524421A530AB12CA12C912CAD
:10421000812C8A818815190409F038F4188A1F86C0
:104220004FEFC41AD40A6396BDCFE881F981EA0D35
:10423000FB1D85819681892BA1F161E070E087816A
:104240009085A8D33C01DBD28C01E881F981EA0D8D
:10425000FB1D8185928525813681200F311FAC01A0
:10426000421B530B9A0147815085421B530B70E050
:1042700060E00E94D339E881F981EA0DFB1DE780F7
:10428000F084458156819301B601C201BBD28C01F5
:10429000892B39F0E881F981EA0DFB1D8581968132
:1042A00005D55FEF851A950A8DE0A80EB11CB1CF38
:1042B00030CA789408952F923F924F925F926F92F6
:1042C0007F929F92AF92BF92CF92DF92EF92FF9236
:1042D0000F931F93CF93DF9300D000D0CDB7DEB7FD
:1042E00000915105109152059924939401151105DF
:1042F00009F43EC0A0905305B09054050ADA982EF8
:104300008823B1F110925205109251051092540574
:104310001092530510925505109256058FEF9FEF9E
:10432000DC0180930B0390930C03A0930D03B093D7
:104330000E0378947FD31E830D83C12CD12C76017C
:10434000C501B0E0A0E089839A83AB83BC832224BB
:104350002A94322C89819A81AB81BC81C816D906F6
:10436000EA06FB06F4F0C801A1D480E40E942114FF
:10437000892D26960FB6F894DEBF0FBECDBFDF9114
:10438000CF911F910F91FF90EF90DF90CF90BF9052
:10439000AF909F907F906F905F904F903F902F9045
:1043A0000895AD81BE8115968D919C9116972091AF
:1043B00001033091020382179307D1F451968D9136
:1043C0009C91EED5ED81FE8180819181B12CA12C53
:1043D000412C512C3201892B89F5BFEFCB1ADB0A16
:1043E000EB0AFB0AED81FE817396FE83ED83B2CF6B
:1043F000C114D104E104F10429F7029718F7ED8103
:10440000FE81818992898F3F980709F029D5AD8176
:10441000BE8152963C922E925197D4CF8A0D9B1D0D
:10442000DC018D919C91009709F040D4BFEF4B1AAD
:104430005B0A6B0A7B0AEDE0AE0EB11CAD81BE815A
:104440008D919C91119712964C9150E070E060E034
:1044500044165506660677060CF328D4BECFCF93D4
:10446000DF93EA0128DF811109C082E090E099839F
:10447000888385EF9FEFDF91CF91089581E090E0F1
:104480000E94131481E090E09983888390E080E09B
:10449000F2CF11DF10924E0510924D05089542E0C3
:1044A00050E06FEB73E00C943114FF920F931F9365
:1044B000CF93DF938A01EC01C60FD71FF980B9D2E1
:1044C0000897F816190671F068F082E090E0F8019C
:1044D000918380838EEF9FEFDF91CF911F910F919A
:1044E000FF9008956C817D818E819F814B810E9418
:1044F000C616811108C082E090E0F80191838083A4
:1045000084EF9FEFE9CFF9800E94C1164F2D50E054
:10451000BE01685F7F4F0E94CA3989810E943017AF
:1045200081E090E0F8019183808390E080E0D4CF37
:10453000DF92EF92FF920F931F93CF93DF938A0145
:10454000EC01C60FD71F0E94C1167C01D98071D221
:10455000DD2059F0029721E030E0D816190619F055
:1045600010F030E020E0232B79F482E090E0F801B5
:10457000918380838EEF9FEFDF91CF911F910F91F9
:10458000FF90EF90DF900895EF2841F482E090E0F3
:10459000F8019183808384EF9FEFEECFF9800E9432
:1045A000C1164F2D50E0BE016E5F7F4F0E94CA3989
:1045B00089810E94301781E090E0F8019183808327
:1045C00090E080E0D9CF8FE492E2909358058093F9
:1045D00057050895809157059091580508950895BD
:1045E000FC0111821082938382830895DB011D9266
:1045F0001C92DC011296ED91FC91139771836083FC
:1046000013967C936E9312970895FC01808191819B
:10461000DB018D939C93A081B181109741F08D9126
:104620009C9191838083892B11F4F383E283089515
:10463000FC0180819181DB018D939C93892B11F486
:1046400073836283718360830895FC0111821082F9
:10465000938382830895CF93DF931F921F92CDB7E8
:10466000DEB71A821982F894BE016F5F7F4F8EE524
:1046700095E0CBDF89819A81009709F017D3898172
:104680009A81892B89F7BE016F5F7F4F82E695E0A3
:10469000BCDF89819A81009709F008D389819A81CA
:1046A000892B89F778940F900F90DF91CF9108951F
:1046B000CF93DF931F921F92CDB7DEB71A82198274
:1046C000F894BE016F5F7F4F8AE595E09EDF898198
:1046D0009A81009709F0EAD289819A81892B89F71A
:1046E00078940F900F90DF91CF91089581E0089515
:1046F00090E080E00895EF92FF920F931F93CF9385
:10470000DF931F921F92CDB7DEB71A821982809174
:10471000590507EF1FEF8823A1F1F894BE016F5FE1
:104720007F4F82E695E071DF789489819A81EE244B
:10473000E394F12C892B51F4F894BE016F5F7F4F05
:104740008EE595E062DF7894F12CE12C89819A81E5
:104750000EEF1FEF0097A9F0FC014281538164E046
:1047600070E076D68C01892B61F0F89469817A81AA
:10477000C701880F991F880F991F825A9A4F58DFD7
:104780007894C8010F900F90DF91CF911F910F91F6
:10479000FF90EF9008950F931F93CF93DF9300D076
:1047A0001F92CDB7DEB71C821B821A8219828091BC
:1047B000590507EF1FEF8823C1F0AE014D5F5F4F32
:1047C00064E070E0CE010196B6D68C01892B69F4C5
:1047D000E981FA818B819C8193838283F89469813A
:1047E0007A818AE595E002DF7894C8010F900F90F6
:1047F0000F900F90DF91CF911F910F910895BBD72C
:10480000049608958F929F92AF92BF92CF92DF92BB
:10481000EF92FF920F931F93CF93DF931F921F92FC
:10482000CDB7DEB71A821982BC016F5F7F4F63304C
:10483000710598F0AA24AA94BA2CC5010F900F9084
:10484000DF91CF911F910F91FF90EF90DF90CF906C
:10485000BF90AF909F908F9008954115510551F3EF
:10486000480159018A016C01CADF8815990511F7C1
:10487000E114F104F9F28E0D9F1DA816B906D0F2CD
:10488000809159058823F1F0F894B50164507109BD
:104890009701AE014F5F5F4FC8010496E1D65C01FE
:1048A000892B71F489819A81F80193838283C601EF
:1048B000880F991F880F991FB801825A9A4F96DE68
:1048C0007894BBCF87EFA82EBB24BA94B6CFAF9213
:1048D000BF92CF92DF92EF92FF920F931F93CF93ED
:1048E000DF931F921F92CDB7DEB71A821982892BF0
:1048F00009F047C06115710509F443C04115510520
:1049000009F43FC02115310509F43BC0011511051B
:10491000C1F1809159058823B9F179016A015B01E0
:10492000F894BE016F5F7F4F8AE595E06EDE789464
:1049300089819A81009759F1DC0112966D917C91E1
:10494000A8010496A6D68C01E981FA81D501ED93E0
:10495000FC93828193810496F601918380834FDFDB
:10496000D7018D939C93C8010F900F90DF91CF9149
:104970001F910F91FF90EF90DF90CF90BF90AF907D
:1049800008950FEF1FEFEFCF07EF1FEFECCF0EEF04
:104990001FEFE9CFCF93DF93EC01672B71F4F4D6CF
:1049A0008C179D0760F0E7D62496C80FD91FE6D66E
:1049B0008C0F9D1FDF91CF910895E3D6F1CF90E04A
:1049C00080E0F8CF0F931F93CF93DF932091590589
:1049D00021112BC08B01EC018EE595E001DE82E612
:1049E00095E0FEDD8AE595E0FBDD97D00097C1F408
:1049F000CBD670E060E0CEDF4FE053E062E070E0E5
:104A000081D1009769F480910F0390911003CED665
:104A1000B801CE0103D5009719F421E02093590580
:104A2000DF91CF911F910F91089584EF9FEFF8CF01
:104A3000A8C6AAC6CF93DF93AAD6EC01892B11F49E
:104A40000ADE36DECE01DF91CF910895CF93DF935A
:104A50009ED6EC01892B09F4FEDDCE01DF91CF91CA
:104A6000089580910F03909110030895CF93DF93E1
:104A700080915905D0E0C0E08823D1F09CD6EC01AC
:104A8000892BB1F4E8DD14DE80910F0390911003BF
:104A9000E7D1E8D2EC01892B59F48EE595E0D5DD1C
:104AA00082E695E0D2DD8AE595E0CFDD10925905EA
:104AB000CE01DF91CF910895EF92FF920F931F9354
:104AC000CF93DF93EC017A018B010F5F1F4F0E9D97
:104AD000A0010F9D500D1E9D500D112470E060E04F
:104AE0000E94D33990E080E0F0E0E0E02FEFE8169C
:104AF000F90639F4DF91CF911F910F91FF90EF905C
:104B000008951A8219822883309711F0D283C183C5
:104B10000196FE01C00FD11FEACFCF92DF92EF9234
:104B2000FF920F931F93CF93DF930FEB16E00C7F51
:104B300043E050E061E173E087E193E01CD481E160
:104B4000E82E83E0F82E97E1C92E93E0D92EC6E532
:104B5000D7E0D7014D915D917D01F6016191719191
:104B60006F01198308835D834C835B834A837F8352
:104B70006E839B012F5F3F4F249FC001259F900DA7
:104B8000349F900D1124998788870115110511F024
:104B9000C80192DF88859985080F191F2A96F7E1C9
:104BA000EF16F3E0FF06A9F6E8E6F5E084E591E00C
:104BB000DF019C011D9221503040E1F71092670502
:104BC000109266051092750710927407109279077B
:104BD00010927807109277071092760710927B0751
:104BE00010927A0710927D0710927C0710927F072F
:104BF00010927E071092830710928207109281070D
:104C000010928007109285071092840710928707F0
:104C10001092860710925307109252071092550770
:104C20001092540790E080E0DF91CF911F910F9197
:104C3000FF90EF90DF90CF9008950097F1F0F894F7
:104C4000A7E1B3E0E6E5F7E030E020E04D915D91CB
:104C500048175907A8F0428153814115510581F049
:104C60008AE0829FF001839FF00D1124EA5AF84FE9
:104C700080819181009759F4789490E080E00895C4
:104C80002F5F3F4F3A962330310501F7F5CFDC0116
:104C900011966D917C9171836083415051095383CA
:104CA0004283FC012193CF0178940895009749F144
:104CB000DC018E91853041F4E0915407F091550765
:104CC0003097F9F0CD0119948530D8F4282F30E0D1
:104CD000F8948FEF8C938AE0829FF001839FF00D10
:104CE0001124EA5AF84F8081918112969C938E93F9
:104CF0001197B183A08382819381019693838283EC
:104D000078940895CF92DF92EF92FF920F931F93C2
:104D1000CF93DF939C018BE695E08C7F4115510585
:104D200009F49BC02115310509F497C0611571057F
:104D300009F493C07A01AB01B9016D5F7F4F6C7FBD
:104D40009B012F5F3F4F249F8001259F100D349FB3
:104D5000100D1124F8942091740730917507232BBE
:104D600059F420917C0730917D072115310569F1B7
:104D70002017310708F058C020917E0730917F0737
:104D8000232B91F420917C0730917D07820F931F94
:104D900020918607309187072115310509F441C01C
:104DA0002017310708F056C07894CFEFDFEF86EF79
:104DB0009FEFF701D183C083DF91CF911F910F91B6
:104DC000FF90EF90DF90CF900895C3E0D0E0C090C7
:104DD0006605D090670521E531E02C193D092017C3
:104DE000310710F32AE02C9FF0012D9FF00D1124C4
:104DF000EA5AF84F918380835583448353834283D7
:104E00007783668311870087009709F055DE0C0DC4
:104E10001D1D1093670500936605789490E080E06F
:104E2000C8CFC4E0D0E0D3CFC3E0D0E02AE02C9FCD
:104E3000F0012D9FF00D1124EA5AF84F91838083E1
:104E4000558344835383428377836683009729F392
:104E500033DEE3CFC4E0D0E0E9CF8FEF9FEFACCFFC
:104E60009C010397029708F069C0F89484E09AE0E7
:104E7000482F50E0241735070CF44DC091E08AE02C
:104E8000829FF001839FF00D1124EA5AF84F11829E
:104E9000108215821482138212821782168299233D
:104EA000B1F18091740790917507892BA9F4209135
:104EB0007C0730917D072115310571F080916605E1
:104EC00090916705821B930B90936705809366050D
:104ED00010927D0710927C0780917E0790917F074A
:104EE000892BA9F420918607309187072115310578
:104EF00071F08091660590916705821B930B9093EA
:104F0000670580936605109287071092860778944C
:104F100090E080E00895949FF001959FF00D11249A
:104F2000EA5AF84F40815181452B31F44085518533
:104F3000452B11F481509CCF90E0A1CF8FEF9FEFD4
:104F400008954115510549F1009739F16115710531
:104F500021F1F8942091520730915307232BB9F493
:104F60002091540730915507232B89F490935307D0
:104F7000809352077093550760935407789425E007
:104F800030E090E080E0FA01318320830895789446
:104F90002FEF3FEF86EF9FEFF6CF8FEF9FEF089554
:104FA000059769F4F89410925307109252071092E3
:104FB000550710925407789490E080E008958FEFA1
:104FC0009FEF08956115710519F4F0E0E0E011C05C
:104FD0008530910581F4E0915207F09153073097A5
:104FE000A1F3CB0101961995009779F3FC0185E0B7
:104FF0008193CF0108959C0123503109223031055E
:1050000020F72AE0289FD001299FB00D1124AA5A29
:10501000B84F2D913C911197232BB9F216962D91F3
:105020003C9117972617370780F2F89412962D9126
:105030003C9113972115310529F0ED91FC911197C1
:10504000309711F47894C1CF4181528111965C93CD
:105050004E932150310913963C932E9312978193CE
:105060007894C7CFECEBF6E086E9DF011D928A95D4
:10507000E9F7E8E6F5E084E591E0DF019C011D92A7
:1050800021503040E1F71092670510926605E6E581
:10509000F7E082E3DF011D928A95E9F7E2E5F7E0A8
:1050A00084E0DF011D928A95E9F790E080E00895A1
:1050B000CF93DF93C0911D03D0911E03CF3FDC0738
:1050C00059F472D490931E0380931D0397FF09C077
:1050D000D0931E03C0931D0384EF9FEFDF91CF9108
:1050E000089590E080E0FACF8230910528F4809313
:1050F000880790E080E008958FEF9FEF08954F922A
:105100005F926F927F92AF92BF92CF92DF92EF92B7
:10511000FF920F931F93CF93DF931F921F92CDB7F0
:10512000DEB71A821982009709F479C061157105FA
:1051300009F475C020911D0330911E0307EF1FEF86
:105140002F3F3F4F09F445C06B015C01412C512CAE
:105150003201F12CE12C10E000E09E012F5F3F4F67
:10516000A6014E195F09B5016E0D7F1D80911D03CB
:1051700090911E037DD4892B09F04BC089819A81BF
:10518000009741F4E114F10429F4209188072223C7
:1051900009F442C0E80EF91EEC14FD04D0F480E8D6
:1051A000481684E858068EE16806710420F560E030
:1051B00070E0CB010E9465332AE0420E511C611C55
:1051C000711C0A3F4FEF140721F0043F8FEF1807BF
:1051D000A1F4C8010F900F90DF91CF911F910F9113
:1051E000FF90EF90DF90CF90BF90AF907F906F9047
:1051F0005F904F90089501EF1FEF81E090E0013F35
:105200002FEF120711F090E080E0892B09F4A5CF71
:10521000E0CF04EF1FEFDDCF0AEF1FEFDACF0FEF84
:105220001FEFD7CF4F925F926F927F92AF92BF9254
:10523000CF92DF92EF92FF920F931F93CF93DF9362
:105240001F921F92CDB7DEB71A821982009709F418
:1052500079C06115710509F475C020911D03309165
:105260001E0307EF1FEF2F3F3F4F09F445C06B01AF
:105270005C01412C512C3201F12CE12C10E000E0BA
:105280009E012F5F3F4FA6014E195F09B5016E0DBC
:105290007F1D80911D0390911E039DD3892B09F0E2
:1052A0004BC089819A81009741F4E114F10429F4FB
:1052B00020918807222309F442C0E80EF91EEC145D
:1052C000FD04D0F480E4481682E458068FE06806B6
:1052D000710420F560E070E0CB010E9465332AE0A4
:1052E000420E511C611C711C0E3F4FEF140721F040
:1052F000043F8FEF1807A1F4C8010F900F90DF91C2
:10530000CF911F910F91FF90EF90DF90CF90BF90C2
:10531000AF907F906F905F904F90089502EF1FEFD6
:1053200081E090E0023F2FEF120711F090E080E063
:10533000892B09F4A5CFE0CF04EF1FEFDDCF0EEFEF
:105340001FEFDACF0FEF1FEFD7CF80911D039091A2
:105350001E038F3F980749F01FD3892B49F48FEF25
:105360009FEF90931E0380931D0390E080E00895CB
:1053700084EF9FEF0895CF92DF92EF92FF920F9309
:105380001F93CF93DF9321E04115510509F020E0F1
:105390004150510921112CC0DC01FB01D12CC12C41
:1053A00021E022C03FEFC31AD30A7D010D911D9168
:1053B000E701EA80FB80E016F106A8F42081318144
:1053C000E280F380F182E08233832283ED90FC90CF
:1053D00011979D0122503109E901F982E882119665
:1053E0001C930E9320E03296C416D506D8F2D2CF85
:1053F000DF91CF911F910F91FF90EF90DF90CF90B1
:105400000895FC01680F791F90E080E0E617F70728
:1054100009F408952191820F911DF8CF20918907F9
:10542000211113C045DE009791F410928F0710925E
:105430008E0710928D0710928C0710928B07109296
:105440008A0721E020938907089584EF9FEF08954C
:10545000AF92BF92CF92DF92EF92FF920F931F9382
:10546000CF93DF93009709F460C04630510508F4EC
:105470005CC020918907C7EFDFEF222309F449C000
:105480008C01060F171FF801C080D180C114D10410
:1054900009F44EC096012A5F3F4F4217530708F4A4
:1054A00047C07C0180918E0790918F079383828300
:1054B000B6016C5F7F4F5801A60EB71EC801A1DF71
:1054C000F5019183808364E070E0C80118DEEC018F
:1054D000892BF9F481E090E007DEB601C80104965B
:1054E0000EDEEC01892B91F462E070E0C50107DE6D
:1054F000EC01892B59F4C701D9DB80918E0790917B
:105500008F07019690938F0780938E0790E080E03D
:10551000EBDDCE01DF91CF911F910F91FF90EF90C6
:10552000DF90CF90BF90AF900895CFEFDFEFF1CF36
:10553000C9EFDFEFEECF6F927F928F929F92AF9283
:10554000BF92CF92DF92EF92FF920F931F93CF9370
:10555000DF9300D01F92CDB7DEB7009709F47AC071
:105560004115510509F476C02091890707EF1FEF17
:10557000222309F44DC03A017B015C0164E070E034
:10558000CE0101964FDE8C01892B09F041C00981C3
:105590001A810115110509F45AC0480186E0880EE8
:1055A000911CB701680D791D80911F039091200314
:1055B00009DD6C01009709F450C0A70170E060E0BC
:1055C0000E94D33989819A81AB81BC81EC0CFD1C8E
:1055D000F70181939193A193B1937F0181E090E0D2
:1055E00083DDB801C7011EDE892B31F562E070E072
:1055F000C701800F911F16DE8C01892BE9F490E022
:1056000080E072DDF501D182C082F3019182808257
:10561000C8010F900F900F900F90DF91CF911F91C5
:105620000F91FF90EF90DF90CF90BF90AF909F9041
:105630008F907F906F90089590E080E055DDF501A8
:1056400011821082F30111821082C6012FDB09EF53
:105650001FEFDECF0FEF1FEFDBCF06EF1FEFD8CF2F
:105660000097A1F04115510589F02115310571F020
:10567000F90136966E177F0748F0DC012D933C93B5
:10568000DA01ED93FC9390E080E008958FEF9FEFB7
:105690000895AF92BF92CF92DF92EF92FF920F9355
:1056A0001F93CF93DF93009709F45FC04115510515
:1056B00009F45BC06530710508F457C02091890773
:1056C000C7EFDFEF222391F1DC01CD90DC90119741
:1056D0001296ED91FC9196012A5F3F4FC9EFDFEFE3
:1056E0002617370719F5C0918A07D0918B072097A5
:1056F00049F521E030E030938B0720938A077A0147
:105700008C01F0938D07E0938C075601B4E0AB0E4B
:10571000B11CB50176DE0A0D1B1DF8012081318117
:105720008217930729F5D701CD92DC92CE01DF9144
:10573000CF911F910F91FF90EF90DF90CF90BF908E
:10574000AF90089520918C0730918D072F5F3F4FC8
:10575000CCEFDFEFE217F30790F2CBEFDFEF2E177E
:105760003F0768F2D0E0C0E0CACFCFEFDFEFDECF77
:10577000C3EFDFEFDBCF84E090E0089582E090E0BC
:1057800008958CEF9FEF089580E290E008951092C5
:105790008F0710928E0710928D0710928C0710922F
:1057A0008B0710928A0790E080E008959093200381
:1057B00080931F03089580918907882391F0C5DDA8
:1057C000009789F410928F0710928E0710928D0720
:1057D00010928C0710928B0710928A0710928907FB
:1057E000089590E080E00895009749F061157105F3
:1057F00031F0FC0111821082FB01118210820895A8
:10580000F3CF089526E030E040E855E260E070E034
:1058100090E080E008D061E08DE00E945A3560E0C1
:105820008DE00C9496351092910710929007893074
:10583000910508F03BC0FC018827EE5DF34D8F4FCA
:105840000C94A9392B2C352C3E2C472C502C572C42
:105850005A2C5D2C632C81E090E09093910780930B
:1058600090078FE997E00C94B53682E090E0909332
:105870009107809390078CE398E0F5CF84E090E067
:10588000909391078093900789ED98E0ECCF88E0A2
:1058900090E0909391078093900786E799E0E3CF9B
:1058A00080E190E09093910780939007089580E2C3
:1058B00090E0F8CF80E490E0F5CF80E890E090931E
:1058C0009107809390078091900790919107916044
:1058D000E9CF1F920F920FB60F9211240BB60F92C1
:1058E0002F933F934F935F936F937F938F939F93E8
:1058F000AF93BF93EF93FF938EE19BEF90932501BE
:10590000809324018091940790919507019721F449
:1059100061E08DE00E949635BFD0FF91EF91BF917D
:10592000AF919F918F917F916F915F914F913F9137
:105930002F910F900BBE0F900FBE0F901F901895D8
:105940008EE19BEF9093250180932401A3E7B0E0C3
:105950008C918E7F8C93E0E2F1E080818C7F80835C
:10596000E1E2F1E08081877E8083808183608083B3
:1059700080818B7F80838C9181608C930895E3E795
:10598000F0E0808190819E7F90838170089581E016
:10599000089510929207089568EE73E080E090E019
:1059A00094D690E080E0089526E030E040E052ECAC
:1059B00061E070E090E080E036DF8FE997E00E94E0
:1059C000EB35892B29F08FE997E00E940536F5CF5A
:1059D00090E080E00895CF92DF92EF92FF920F93D4
:1059E0001F93CF93DF936B017A01E901198218822B
:1059F0008FE997E00E94EB35892B79F18601CC2461
:105A0000C39482E0D82E80919207811111C08FE952
:105A100097E00E9405360297B1F7C0929207F8010D
:105A2000D1928F0188819981019699838883EBCFE8
:105A3000888199818E159F0580F48FE997E00E94F7
:105A400005368F3F9807A1F3F80181938F01888174
:105A50009981019699838883EBCF90E080E0DF9174
:105A6000CF911F910F91FF90EF90DF90CF9008950D
:105A70000F931F93CF93DF93EA0189018FE997E09A
:105A80000E944539F801D183C08390E080E0DF9126
:105A9000CF911F910F9108958091930791E0980FF6
:105AA00090939307882349F021E030E030939507E5
:105AB0002093940780939307089578940E941E057D
:105AC000F894809193078150F5CF0F931F93CF9354
:105AD000DF931092C00A1092BF0A2DD693DEC091B8
