:1000000005C100000C94A62F0C94D12F0C94FC2F4A
:100010000C9427300C9452300C947D300C94A83002
:100020000C94D33024C1000022C1000020C1000084
:100030001EC100001CC100001AC1000018C1000050
:1000400016C1000014C1000012C1000010C1000060
:100050003AC200000CC100000AC100000C94FE303E
:1000600006C100000C941D350C94533500C10000EE
:10007000FEC00000FCC00000FAC00000F8C0000094
:10008000F6C00000F4C00000F2C00000F0C00000A4
:100090000C94A9350C94DF35EAC00000E8C00000DC
:1000A000E6C00000E4C00000E2C00000E0C00000C4
:1000B000DEC00000DCC00000DAC00000D8C00000D4
:1000C000D6C00000D4C000000C94E62A0C9435364B
:1000D0000C946B36CCC000000C94C1360C94F736EF
:1000E000C6C0000000000A0B02090C0D0E08070331
:1000F00004010000000000000000000000000000FB
:1001000000000000000000000000000000000000EF
:1001100012111000000000000000000000000000AC
:100120000000000000000000000001021020200874
:100130000810204010204080020102010804020142
:1001400001020408102040808040201008040201B1
:10015000800402018040201008040201080402010A
:100160000102040810204080010204081020408091
:1001700005050505070508080808020202020A0A23
:100180000808040404040101010101010101030341
:10019000030303030303040707070C0C0C0C0C0CEC
:1001A0000C0C0202020206060606060606060B0BE9
:1001B0000B0B0B0B0B0B000020002300260029006B
:1001C0002C002F003200000100000301060109018C
:1001D00000002200250028002B002E0031003400F2
:1001E00002010000050108010B01000021002400AC
:1001F00027002A002D003000330001010000040117
:1002000007010A017C3508369436203711241FBEB9
:10021000CFEFD1E2DEBFCDBF00E00CBF13E0A0E026
:10022000B2E0E8ECFFE600E00BBF02C007900D92E1
:10023000A23FB107D9F72AE0A2EFB3E001C01D92B7
:10024000A833B207E1F711E0C6E0D1E000E006C054
:1002500021970109802FFE010E94B137C230D107DA
:1002600080E00807A9F70E94E22B0C94E237C8CE81
:10027000CF93DF93882349F0EB0181500E94053230
:1002800099838883DF91CF910895FB0111821082B9
:10029000F9CF0F931F938B019C0183E0369527952F
:1002A000179507958A95D1F70E501C4F462F47702A
:1002B00021E030E0F90102C0EE0FFF1F4A95E2F79E
:1002C000AF01F80120812423CB010196211102C046
:1002D00090E080E01F910F9108950F931F938B0181
:1002E0009C0183E036952795179507958A95D1F758
:1002F000677081E090E001C0880F6A95EAF7F80125
:10030000EE50FC4F2081452B31F480958223808371
:100310001F910F910895822BFACFCF92DF92EF9227
:10032000FF92CF93DF936B017C0160E086E3C816F8
:10033000D104E104F10490F486E38C0D0E94623351
:10034000E6012196AE01C701B601C7DFCE01DF91FC
:10035000CF91FF90EF90DF90CF9008958C2DEECF4E
:10036000882341F08150682F70E090E080E050E0F9
:1003700040E0B3CF0895CF92DF92EF92FF920E94B8
:1003800048316B017C018FE10E94CB334091FC032B
:100390005091FD036091FE037091FF03892B21F1C1
:1003A00080910A0490910B04019690930B04809322
:1003B0000A04D701C601841B950BA60BB70B8093CB
:1003C000000490930104A0930204B0930304C0922C
:1003D000FC03D092FD03E092FE03F092FF03FF9036
:1003E000EF90DF90CF90089580910A0490910B04D4
:1003F000019790930B0480930A044C195D096E09D0
:100400007F094093000450930104609302047093A9
:100410000304DDCF0F931F93F801D9019C91DA01FA
:100420007C91781302C0691739F0A081B1818917D6
:1004300051F01197B183A083FA018083D9016C93A5
:100440001F910F9108951196F5CF0F931F9369B1E6
:1004500086B163FB662760F90AE014E022E134E02C
:1004600043E154E086FB882780F9D4DF69B189B184
:1004700062FB662760F908E014E020E134E041E126
:1004800054E0881F8827881FC5DF6CB1809109015F
:1004900065FB662760F906E014E02EE034E04FE0EB
:1004A00054E08170B7DF6CB18FB16295617004E088
:1004B00014E02CE034E04DE054E086958170AADF32
:1004C0001F910F9108951F920F920FB60F92112452
:1004D0000BB60F922F933F934F935F936F937F933E
:1004E0008F939F93AF93BF93EF93FF938091FB0301
:1004F000811117C0AADF82E08093FB03FF91EF9187
:10050000BF91AF919F918F917F916F915F914F912B
:100510003F912F910F900BBE0F900FBE0F901F9029
:1005200018958150E9CF10920B0410920A0462E0F2
:1005300082E10E94623362E08FE10E94623342E016
:1005400050E06BEB71E085E00E942C2F0E94483157
:100550006093FC037093FD038093FE039093FF036D
:100560008FEF9FE7A0E0B0E0809300049093010438
:10057000A0930204B09303040895CF92DF92EF9208
:10058000FF920F931F93F894C0900004D090010441
:10059000E0900204F090030478940E9448310091A6
:1005A000FC031091FD032091FE033091FF03601BBB
:1005B000710B820B930B97FF04C06FEF7FEF8FEFF0
:1005C0009FE797018601F7FE07C0002711279801D2
:1005D0000C191D092E093F090617170728073907A7
:1005E0009CF41C141D041E041F043CF0909580957F
:1005F000709561957F4F8F4F9F4F1F910F91FF9087
:10060000EF90DF90CF900895C701B601F6CFF89430
:1006100080910A0490910B047894089561E082E23D
:100620000E94623361E083E20E94623361E08CE009
:100630000E946233E1E8F0E08081887F81608083FE
:100640000895CF93DF93EC0160E018161906C4F407
:1006500082E20E949E3361E083E20E949E33BE01EB
:10066000D7FF03C07195619571096F3F710519F04E
:1006700014F06FEF70E08CE0DF91CF910C94283292
:1006800083E20E949E3361E082E2E7CF61E085E28F
:100690000E94623361E084E20E94623361E088E09C
:1006A0000E946233E1EAF0E08081887F816080838C
:1006B0000895CF93DF93EC0160E018161906C4F497
:1006C00085E20E949E3361E084E20E949E33BE0177
:1006D000D7FF03C07195619571096F3F710519F0DE
:1006E00014F06FEF70E088E0DF91CF910C94283226
:1006F00084E20E949E3361E085E2E7CF90E080E0F3
:1007000008950F931F93009709F48AC0611571052E
:1007100009F486C000910D0310910E0320910F0380
:10072000309110030E3F1F4F2F4F3F4F09F06AC00B
:10073000DB014D915D916D917C9140930D03509340
:100740000E0360930F037093100340910D035091BB
:100750000E0360910F0370911003DC011296ED916E
:10076000FC9180819181A281B38180931505909342
:100770001605A0931705B093180584819581A6816D
:10078000B7818093110590931205A0931305B09340
:10079000140580859185A285B38580930D0590937E
:1007A0000E05A0930F05B093100584859585A68549
:1007B000B7858093090590930A05A0930B05B09324
:1007C0000C0510920505109206051092070510926F
:1007D00008050E94810E86EA9EE09093150480939E
:1007E000140490931704809316040E94700D0097D0
:1007F00031F421E030E030931A05209319051F9160
:100800000F91089500910D0310910E0320910F0395
:1008100030911003FB01008311832283338395CF32
:100820008FEF9FEFECCF8F929F92AF92BF92CF92BC
:10083000DF92EF92FF921F93CF93DF934B015C0106
:1008400010911C0582E090E090931A0580931905A1
:1008500081149104A104B10441F480911C0581111B
:1008600004C080911B05C1E08111C0E0C12CD12CD6
:10087000760180911C05811106C080911B058111B4
:1008800002C0CC23D9F083E090E090931A058093C6
:100890001905CC2381F1CCE9DFEF111102C00E94D0
:1008A0000B12CE01DF91CF911F91FF90EF90DF905F
:1008B000CF90BF90AF909F908F9008956AE070E0C6
:1008C00080E090E00E946D3180E1C80E87E2D81E82
:1008D000E11CF11C8FEF88169806A806B80631F0C7
:1008E000C1E08C149D04AE04BF0408F0C0E080E0B9
:1008F0000E94A40DBECFD0E0C0E0CFCFCF92DF9258
:10090000EF92FF920F931F93CF93DF938F3F910549
:1009100011F008F051C02091190530911A052330CB
:10092000310539F02091190530911A052130310532
:1009300031F424E030E030931A05209319056A0160
:100940007B01EC0182309105A8F011E0AE01C701F6
:10095000B6010E946F0DAB01BC01CE011123F9F06D
:10096000DF91CF911F910F91FF90EF90DF90CF908B
:100970000C9430148C01000F111F0C5E1B4FD8011A
:100980008D919C91892B09F30E943A140297E9F604
:10099000D801ED91FC91CE011995182FD7CF0E9467
:1009A000521490E080E0DF91CF911F910F91FF9062
:1009B000EF90DF90CF9008958FEF9FEFF4CF80E01E
:1009C0000C94A40DCF93DF9386E090E090931A05EA
:1009D000809319050E94FD0DEC01E4E1F4E084E050
:1009E000DF011D928A95E9F70E94A31110921A0562
:1009F00010921905CE01DF91CF91089580911B05CA
:100A0000089580910405089560930D0370930E037B
:100A100080930F039093100390E080E008952F924D
:100A20003F924F925F926F927F928F929F92AF927E
:100A3000BF92CF92DF92EF92FF920F931F93CF93CB
:100A4000DF93CDB7DEB76A970FB6F894DEBF0FBE5F
:100A5000CDBFA0900B0AB0900C0AC090090AD090AC
:100A60000A0AE091DE04F091DF0440805180628048
:100A70007380A3019201D6016D917D918D919C911E
:100A80000E94C42E10E000E087FF3BC0A30192014A
:100A9000F60164A975A986A997A90E94D92C0CE032
:100AA00010E0181674F50091190A10911A0A7801CD
:100AB000EE0CFF1CEE0CFF1C46018E0C9F1CA301CC
:100AC0009201D4016D917D918D919C910E94C42ED3
:100AD000B4E0EB0EF11CEC0CFD1C18160CF034C34A
:100AE000E4E08E1A9108A3019201D40114966D914D
:100AF0007D918D919C9117970E94C42E18160CF42D
:100B00001EC310931A0A0093190A000F111F000F39
:100B1000111FF601E00FF11F80819181A281B38145
:100B20008B839C83AD83BE83780194E0E90EF11C36
:100B3000F601EE0DFF1D80819181A281B3818F832B
:100B40009887A987BA879C01AD016B817C818D81D3
:100B50009E810E94D92C81110BC32B813C814D8138
:100B60005E81C301B2010E94D92CF50187FFF9C251
:100B7000E00FF11F90819B87A181AC872280338099
:100B80008090110A9090120AA0900F0AB090100A5B
:100B9000A3019201D5016D917D918D919C910E944F
:100BA000C42E10E000E087FF3BC0A3019201F501D5
:100BB00064A575A586A597A50E94D92C0AE010E02A
:100BC000181674F500911B0A10911C0A7801EE0C9E
:100BD000FF1CEE0CFF1C6501CE0CDF1CA301920173
:100BE000D6016D917D918D919C910E94C42EB4E0AF
:100BF000EB0EF11CEA0CFB1C18160CF013C3E4E01E
:100C0000CE1AD108A3019201D60114966D917D915F
:100C10008D919C9117970E94C42E18160CF4FDC25A
:100C200010931C0A00931B0A000F111F000F111FC5
:100C3000F501E00FF11FC080D180E280F380C80190
:100C400004969E878D87FC01EA0DFB1D80819181B2
:100C5000A281B3818F87988BA98BBA8B9C01AD0140
:100C6000C701B6010E94D92C8111F3C2A7019601D8
:100C7000C301B2010E94D92C87FFE1C2F401E00F49
:100C8000F11F008191819B83A281AF8313818091A9
:100C90000C03813029F00B87BB81BC872F80312E5C
:100CA000C090E002D090E102E090E202F090E30216
:100CB0002B853C85A101C701B6010E94D92C87FF75
:100CC00020C3C092D109D092D209E092D309F09208
:100CD000D409C090D802D090D902E090DA02F09006
:100CE000DB02A70196016091E7097091E809809104
:100CF000E9099091EA090E94D92C8823F1F0C701F3
:100D0000B601A5D5882309F41AC38091D802909121
:100D1000D902A091DA02B091DB028B8B9C8BAD8B58
:100D2000BE8B8B899C89AD89BE898093E70990939E
:100D3000E809A093E909B093EA0969DCBC01990FBD
:100D4000880B990B0E94732D9B01AC016091FC02F2
:100D50007091FD028091FE029091FF020E94C82EC8
:100D60006093D5097093D6098093D7099093D809D9
:100D7000C090DC02D090DD02E090DE02F090DF0255
:100D8000A70196016091F1097091F2098091F30930
:100D90009091F4090E94D92C8823F1F0C701B60183
:100DA00056D5882309F4D8C28091DC029091DD02E7
:100DB000A091DE02B091DF028F8B988FA98FBA8F3E
:100DC0008F89988DA98DBA8D8093F1099093F2093E
:100DD000A093F309B093F409D0DB0E94732D209106
:100DE00000033091010340910203509103030E94DC
:100DF000C82E9B01AC0160E070E080E89FE30E9498
:100E0000DD2C20910403309105034091060350919D
:100E100007030E94C82E6093D9097093DA09809362
:100E2000DB099093DC0960E470E080E090E031DA67
:100E30009093FC098093FB0943E050E0BE016F5F93
:100E40007F4F16DA80911D0A09811A81882369F083
:100E5000B80190E080E00E94712D6093150A7093B4
:100E6000160A8093170A9093180AC090150AD0901A
:100E7000160AE090170AF090180AB80190E080E096
:100E80000E94712DA70196010E94742C20910803E5
:100E90003091090340910A0350910B030E94C82E20
:100EA0006093DD097093DE098093DF099093E00978
:100EB0002091D0023091D1024091D2025091D302C0
:100EC00060E070E08FE793E40E94DD2C2091D1096F
:100ED0003091D2094091D3095091D4090E94C82E73
:100EE0003B014C01A090E802B090E9020091EA02B7
:100EF0001091EB029B01AC01B501C8010E94D92CF5
:100F000087FD12C0A090EC02B090ED020091EE02BD
:100F10001091EF029301A401B501C8010E94C42EF3
:100F2000181614F053018401B501C8010E94AE2DBA
:100F30004B015C01D1D481111CC2C501B40187D41D
:100F4000811117C220E030E040E857E4C501B40148
:100F50000E94C82D4B015C0120E030E0A9010E94F5
:100F6000D92C87FF09C2C501B40190580E94452DB4
:100F700088279927861B970B64DB2091D109309134
:100F8000D2094091D3095091D4096091F002709137
:100F9000F1028091F2029091F3020E94C82E4B015F
:100FA0005C012091D4023091D5024091D60250913B
:100FB000D70260E070E08FE793E40E94DD2C9B0194
:100FC000AC01C501B4010E94C82E3B014C01A090A8
:100FD000F402B090F5020091F6021091F7029B0125
:100FE000AC01B501C8010E94D92C87FD12C0A090A8
:100FF000F802B090F9020091FA021091FB029301FD
:10100000A401B501C8010E94C42E181614F05301A2
:101010008401B501C8010E94AE2D4B015C015CD476
:101020008111B0C1C501B40112D48111ABC120E05E
:1010300030E040E857E4C501B4010E94C82D4B01DF
:101040005C0120E030E0A9010E94D92C87FF9DC1FE
:10105000C501B40190580E94452D88279927861B09
:10106000970B27DB10921D0AC092150AD092160A20
:10107000E092170AF092180A4091D3045091D404D8
:101080006091D5047091D60481E090E037DC6091E6
:10109000CB047091CC048091CD049091CE046F5F0D
:1010A0007F4F8F4F9F4F6093CB047093CC048093FE
:1010B000CD049093CE040091DE041091DF040E94D1
:1010C000712D9B01AC016091CF047091D00480918F
:1010D000D1049091D2040E94C82ED8016D937D93C3
:1010E0008D939C9313978091D3049091D404A091F5
:1010F000D504B091D6040196A11DB11D8093D304EF
:101100009093D404A093D504B093D6046A960FB6F6
:10111000F894DEBF0FBECDBFDF91CF911F910F912D
:10112000FF90EF90DF90CF90BF90AF909F908F9007
:101130007F906F905F904F903F902F900895015057
:101140001109CECC0F5F1F4FF70161917191819111
:1011500091917F01A30192010E94D92C181694F756
:10116000D0CCEE0DFF1DB081BB8781818C8706CD71
:10117000F501E00FF11F90819B87A181AC87228050
:101180003380EA0CFB1CF70180809180A280B38041
:10119000A5019401692F7A2FC1010E94D92C8823BF
:1011A00009F4EECCA30192016F81788589859A8537
:1011B0000E94742C6B017C012B813C814D815E81EE
:1011C0006F81788589859A850E94742C9B01AC017A
:1011D000C701B6010E94DD2C6B017C01AC019B01B3
:1011E00060E070E080E89FE30E94742CA501940108
:1011F0000E94C82E4B015C012B853C85A101C701D3
:10120000B6010E94C82E9B01AC01C501B4010E9429
:10121000752C6B877C871C01B3CC01501109EFCC76
:101220000F5F1F4FF70161917191819191917F0142
:10123000A30192010E94D92C181694F7F1CCED85E8
:10124000FE85E80DF91D0081B181BB8382818F830A
:101250001DCDF401E00FF11F008191819B83A281DC
:10126000AF831381ED85FE858E0E9F1ED4018D9078
:101270009D90AD90BC90A5019401602F792F8F8136
:10128000912F0E94D92C882309F401CDA30192014A
:101290006F85788989899A890E94742C2B013C0179
:1012A000A70196016F85788989899A890E94742C93
:1012B0009B01AC01C301B2010E94DD2C6B017C01DA
:1012C000AC019B0160E070E080E89FE30E94742C19
:1012D000A50194010E94C82E4B015C01202F3B8187
:1012E0004F81512FC701B6010E94C82E9B01AC014E
:1012F000C501B4010E94752C062F7B838F83192FA3
:10130000C6CCC090E402D090E502E090E602F090F6
:10131000E7022B853C85A101C701B6010E94C42EBE
:1013200018160CF4CECC8B859C85D1018093D10905
:101330009093D209A093D309B093D409CACC6091F9
:10134000D8027091D9028091DA029091DB02C4D266
:10135000882309F4DACCE5CC6091DC027091DD02DF
:101360008091DE029091DF02B7D2882309F41CCD70
:1013700027CD812C912C5401C501B4010E94452D2B
:10138000CB01FACD812C912C5401C501B4010E94EE
:10139000452DCB0166CE8F929F92AF92BF92CF9296
:1013A000DF92EF92FF92CF9384E090E019D2E0E3D6
:1013B000F4E088EBDF011D928A95E9F78BED94E06C
:1013C00090933704809336048EED94E090937104EB
:1013D000809370048FEC94E09093450480934404D0
:1013E000F0939B04E0939A04F0933504E093340463
:1013F00081E090E09093DC048093DB0487E493E049
:1014000090933B0480933A0480EE94E09093DF0441
:101410008093DE0480E090E0A0E7B1E48093D704FD
:101420009093D804A093D904B093DA048AE097ED9E
:10143000A3EABBE38093CF049093D004A093D1049C
:10144000B093D2048CE698EFA7E8BBEE8093B90482
:101450009093BA04A093BB04B093BC0487E39BEFC2
:10146000A8EAB5EC8093BD049093BE04A093BF049A
:10147000B093C00489EE9BE2A0E3B2E08093C10484
:101480009093C204A093C304B093C40489E99EEE70
:10149000ABE0BFEA8093C5049093C604A093C70451
:1014A000B093C80484E294E09093330480933204B0
:1014B00088E194E0909325048093240489E593E0E7
:1014C000909319048093180490931B0480931A043A
:1014D00090931D0480931C0490931F0480931E041A
:1014E00090932104809320049093230480932204FA
:1014F00089EC94E0909329048093280489EB94E08C
:10150000909327048093260488EB9BE0A0E0B0E052
:1015100080932C0490932D04A0932E04B0932F0459
:10152000E1EDF9E080E1DF011D928A95E9F7E1EE56
:10153000F9E08DE3DF011D928A95E9F788E992E0F1
:1015400090930A0A8093090A80E692E090930C0A2D
:1015500080930B0A80E392E09093100A80930F0A25
:1015600080E092E09093120A8093110A81E08093C8
:101570001D0A6091D8027091D9028091DA0290918F
:10158000DB0265D1882309F48BC08090D80290904B
:10159000D902A090DA02B090DB028092E709909223
:1015A000E809A092E909B092EA0981E090E0A0E0A0
:1015B000B0E08093E2099093E309A093E409B0932B
:1015C000E5090E94930281E08093E6091092EB09FD
:1015D0006091DC027091DD028091DE029091DF0269
:1015E00036D1882309F469C0C090DC02D090DD02B6
:1015F000E090DE02F090DF02C092F109D092F20991
:10160000E092F309F092F409C12CD12C7601C39435
:10161000C092EC09D092ED09E092EE09F092EF0948
:101620000E949302C1E0C093F0091092F509C092A4
:10163000F609D092F709E092F809F092F90960E40E
:1016400070E080E090E00E948D019093FC0980930F
:10165000FB09C093FA091092FD09C092FE09D092CD
:10166000FF09E092000AF092010A0E940E03C09363
:10167000020A1092030AC092040AD092050AE0926C
:10168000060AF092070A02D8C093080ACF91FF9089
:10169000EF90DF90CF90BF90AF909F908F90089584
:1016A0006091D8027091D9028091DA029091DB02A8
:1016B00013D1882309F469CF70CF6091DC02709157
:1016C000DD028091DE029091DF0206D1882309F4C9
:1016D0008BCF92CF8091E109811103C081E080938B
:1016E000E1098091EB09811103C081E08093EB094E
:1016F0008091F50981111FC081E08093F5098091E7
:10170000F6099091F709A091F809B091F9090197AC
:10171000A105B10581F48091FA09882361F060E4A4
:1017200070E080E090E00E9449019093FC09809372
:10173000FB090E94B0018091FD09811117C081E071
:101740008093FD098091FE099091FF09A091000A04
:10175000B091010A0197A105B10541F48091020AF7
:10176000882321F090E080E00E9421038091030A09
:10177000811117C081E08093030A8091040A90913F
:10178000050AA091060AB091070A0197A105B105C3
:1017900041F48091080A882321F090E080E00C94C5
:1017A0005903089560E070E080E89FE7089560E0E5
:1017B00070E080E89FE7089560E070E080E89FEFC8
:1017C000089560E070E080E89FEF089560E070E0C9
:1017D00080EC9FEF089560E070E080EC9FEF08954B
:1017E000F5DF60932A0A70932B0A80932C0A90935A
:1017F0002D0AF1DF60931E0A70931F0A8093200A5E
:101800009093210ACFDF6093260A7093270A809372
:10181000280A9093290ACBDF6093220A7093230A47
:101820008093240A9093250AC7DF60932E0A709351
:101830002F0A8093300A9093310AC3DF6093320AF3
:101840007093330A8093340A9093350A0895CF92A7
:10185000DF92EF92FF92CF936B017C01AC019B0171
:101860006091260A7091270A8091280A9091290A8E
:101870000E94D92CC1E0882371F0A70196016091E4
:101880002E0A70912F0A8091300A9091310A0E949D
:10189000D92C8111C0E08C2FCF91FF90EF90DF9079
:1018A000CF9008950F931F938B019C010027112760
:1018B00020783F770115110520483F4749F4AB01D7
:1018C000BC016F77772781E0452B462B472B09F426
:1018D00080E01F910F910895E5CF4F925F926F9234
:1018E0007F928F929F92AF92BF92CF92DF92EF92B0
:1018F000FF920F931F93F8944090F4045090F504D6
:101900006090F6047090F704C090E804D090E90469
:10191000E090EA04F090EB044130510509F0A4C0D6
:101920009B01AC01241935094609570929013A01DF
:101930000091F0041091F1042091F2043091F3042D
:1019400048015901840C951CA61CB71C80169106F1
:10195000A206B306A0F40091EC041091ED042091CE
:10196000EE043091EF040F5F1F4F2F4F3F4F009356
:10197000EC041093ED042093EE043093EF04809276
:10198000F0049092F104A092F204B092F30400915A
:10199000EC041091ED042091EE043091EF0480925C
:1019A000F8049092F904A092FA04B092FB04009318
:1019B000FC041093FD042093FE043093FF04609315
:1019C000F4047093F5048093F6049093F704A8E868
:1019D000B3E1A30192010E94B9376C0D7D1D8E1DEC
:1019E0009F1D6093E8047093E9048093EA04909348
:1019F000EB0400910D0310910E0320910F03309121
:101A000010030F3F1F4F2F4F3F4FF1F000910D0379
:101A100010910E0320910F03309110030E3F1F4FC2
:101A20002F4F3F4F89F0C0900D03D0900E03E090F0
:101A30000F03F090100321E08C149D04AE04BF044A
:101A400008F420E02093040578941F910F91FF90F3
:101A5000EF90DF90CF90BF90AF909F908F907F904E
:101A60006F905F904F9008954B015C01841895082A
:101A7000A608B708A3019201261B370B480B590B88
:101A80006415750586059705D0F082169306A406A1
:101A9000B50640F420E030E0A90181149104A104CE
:101AA000B10491F4A8E8B3E10E94B937A701960107
:101AB000261B370B480B590BCA01B901C5CF82163B
:101AC0009306A406B50670F7A8E8B3E1A501940152
:101AD0000E94B9376C0D7D1D8E1D9F1DB5CFFDCEAB
:101AE000CF93DF9300D01F92CDB7DEB71C821B824D
:101AF0001A821982109200051092010510920205B7
:101B000010920305BE016F5F7F4FCE0103960E94C6
:101B1000712A69817A818B819C810E945F23009761
:101B200061F4BE016F5F7F4FCE0103960E947D2A54
:101B300069817A818B819C812BD50F900F900F90BA
:101B40000F90DF91CF910895FF920F931F93CF9342
:101B5000DF93082F60E070E0CB010E946D31FF241D
:101B6000F3940E944822EC01892B89F010E0CE3FCB
:101B70008FEFD80769F0002361F160E070E0CB01DE
:101B80000E946D3181E090E0892B59F322C011E071
:101B900022D5EC01892B21F0CE3F8FEFD80759F7E2
:101BA00011111EC011E0229609F410E00E94F821E4
:101BB000EC01892B21F0CE3F8FEFD807E1F6111110
:101BC00011C011E0CE3F8FEFD80709F410E00111EA
:101BD0000BC0CE01DF91CF911F910F91FF9008951F
:101BE00011E0E4CF11E0F3CF60E070E0CB010E94A0
:101BF0006D311F25812F90E0C7CFCF93DF93809168
:101C00000405882321F060E070E0CB0149D632D68C
:101C1000D0E0C0E0892B71F06AE070E080E090E0F5
:101C20000E946D3181E090DF25D62196C03727E1F3
:101C3000D20781F724D60E94B32310921C0510927C
:101C40001B0510921505109216051092170510929B
:101C5000180510921105109212051092130510929A
:101C6000140510920D0510920E0510920F0510929A
:101C700010051092090510920A0510920B0510929A
:101C80000C0510920505109206051092070510929A
:101C900008054EEF5FEF6FEF7FEF40930D0350931A
:101CA0000E0360930F037093100310920405E8EF86
:101CB000F4E028E0DF011D922A95E9F71092F40480
:101CC0001092F5041092F6041092F7041092F004AA
:101CD0001092F1041092F2041092F3041092EC04AA
:101CE0001092ED041092EE041092EF041092E804AA
:101CF0001092E9041092EA041092EB04DF91CF9164
:101D00000895109228051092290510922A05109224
:101D10002B05109227058091300590913105909305
:101D20002605809325051092240510922305109214
:101D30001F05109220051092210510922205109285
:101D40002D0510922C0590E080E00895CF92DF924F
:101D5000EF92FF920F931F93CF938C01019709F09D
:101D600055C0209130053091310580912505909125
:101D7000260540913005509131055093260540933A
:101D800025052817390781F01092240510922305A4
:101D900010921F0510922005109221051092220525
:101DA00010922D0510922C058091300590913105EF
:101DB000019761F580912C0590912D05892B21F4D7
:101DC00080911103811112C080912C0590912D05F5
:101DD0000197E1F480911F0590912005A0912105C4
:101DE000B09122050197A105B10581F410921F055C
:101DF00010922005109221051092220510921103D5
:101E000082E090E090932D0580932C058091300521
:101E100090913105019709F01CC180914605909180
:101E200047058017910709F014C1809142059091F0
:101E30004305A0914405B0914505009709F409C1F7
:101E40002091410521110DC040914205509143055B
:101E50006091440570914505452B462B472B09F4AD
:101E6000F8C020912C0530912D052230310509F064
:101E7000F0C0209123052111ECC0FC01C080D1806D
:101E8000E280F38080912705882309F4D3C08091F4
:101E9000330590913405892B09F4FEC02091330558
:101EA0003091340581E02230310509F080E0209145
:101EB000330530913405C1E02130310549F02091DE
:101EC000330530913405C1E02230310509F0C0E01E
:101ED000882309F456C020913D0530913E0540917C
:101EE0003F0550914005C701B6010E94C42E87FDF1
:101EF00014C020913D0530913E0540913F05509121
:101F00004005609128057091290580912A059091DE
:101F10002B050E94D92C87FD22C020913D053091D0
:101F20003E0540913F0550914005C701B6010E9412
:101F3000C42E181634F520913D0530913E05409190
:101F40003F055091400560912805709129058091C9
:101F50002A0590912B050E94D92C811112C08091E5
:101F6000350590913605A0913705B0913805892B3C
:101F70008A2B8B2B19F481E08093240581E08093D8
:101F80002305CC2309F456C020913D0530913E0530
:101F900040913F0550914005C701B6010E94D92CE0
:101FA00087FF14C020913D0530913E0540913F05CB
:101FB00050914005609128057091290580912A056E
:101FC00090912B050E94C42E87FF22C020913D05D1
:101FD00030913E0540913F0550914005C701B60143
:101FE0000E94D92C811126C020913D0530913E05DB
:101FF00040913F0550914005609128057091290559
:1020000080912A0590912B050E94C42E181694F4F5
:102010008091350590913605A0913705B09138052E
:10202000892B8A2B8B2B19F481E08093240581E086
:102030008093230581E090912305911180E08093A6
:102040002705C0922805D0922905E0922A05F09232
:102050002B050130110509F067C180912C05909185
:102060002D05892BD9F41092320510922305809109
:102070001103882379F082E090E090932D058093FE
:102080002C0510921103209130053091310581E02B
:10209000232BE9F080E01BC081E009CF10921103EF
:1020A00080913205882349F01092240510922D0565
:1020B00010922C0510923205EDCF80913005909151
:1020C0003105892BE1F080912305109223052091A1
:1020D0002C0530912D052230310509F45EC088F4BD
:1020E0002115310509F448C02130310509F4F3C048
:1020F00010922405109223051092320538C081E019
:10210000E6CF2330310509F4B1C02430310581F721
:1021100040911F0550912005609121057091220585
:10212000411551056105710561F041505109610981
:10213000710940931F05509320056093210570930A
:10214000220540911F055091200560912105709155
:102150002205452B462B472BD9F420912E05309193
:102160002F052130310509F046C010922405109248
:102170002D0510922C050CC080911103882341F08D
:1021800082E090E090932D0580932C05109211032E
:1021900010921D0580912405CEC08823C9F380913B
:1021A000350590913605A0913705B0913805181680
:1021B00019061A061B060CF07DC08091300590911F
:1021C0003105019709F076C080913505909136056B
:1021D000A0913705B091380580931F059093200595
:1021E000A0932105B093220583E090E090932D0504
:1021F00080932C05CDCF4091390550913A056091DF
:102200003B0570913C05452B462B472BA9F01092BE
:1022100024058091390590913A05A0913B05B09134
:102220003C0580931F0590932005A0932105B09352
:10223000220581E090E0DACF882399F080911203A3
:1022400090911303A0911403B091150380931F057F
:1022500090932005A0932105B093220584E090E09F
:10226000C5CF1092240582E090E0C0CF80911F0579
:1022700090912005A0912105B09122050097A1051C
:10228000B10559F00197A109B10980931F059093F9
:102290002005A0932105B093220580911F05909100
:1022A0002005A0912105B0912205892B8A2B8B2B2B
:1022B00009F06ECF8091120390911303A091140343
:1022C000B0911503892B8A2B8B2B09F44ECF81E01B
:1022D00080932405B3CF40911F0550912005609154
:1022E000210570912205411551056105710561F0C7
:1022F000415051096109710940931F055093200510
:10230000609321057093220540911F05509120058F
:102310006091210570912205452B462B472B09F032
:1023200037CF8111C7CF9FCF80911D05882309F436
:1023300031CF80911E05CF911F910F91FF90EF90AB
:10234000DF90CF90089510922805109229051092E1
:102350002A0510922B051092270510922D05109238
:102360002C05109226051092250510924705109213
:102370004605109224051092230510921F05109215
:102380002005109221051092220510921E05109230
:102390001D051092420510924305109244051092BB
:1023A00045051092410510923D0510923E05109290
:1023B0003F051092400588EE93E0A0E0B0E08093E6
:1023C000120390931303A0931403B0931503109278
:1023D000390510923A0510923B0510923C05109277
:1023E0003505109236051092370510923805109277
:1023F00034051092330581E0809311031092320569
:10240000109231051092300510922F0510922E0572
:1024100090E080E008958091300590913105892BFE
:10242000E1F480911103882351F0809132058111EC
:1024300006C081E080931E0580931D05089580915C
:102440003205882341F080911103811104C010925C
:102450001E0581E0F1CF10921D05089582E090E005
:10246000FA01918380838FEF9FEF0895CF93DF93DD
:10247000EA01009711F00E94D3241982188290E09B
:1024800080E0DF91CF910895DB01009719F48FEF81
:102490008C9308952EEF2C93FC017096E031F1059A
:1024A00008F037C08827E85AFD4E8F4F0C94B1379B
:1024B00087128512831281127F127D1279127B128C
:1024C00077127512731270126C1268126E128912E2
:1024D00080E311968C93089589E2FBCF82E2F9CFD5
:1024E00011961C92089583E2F4CF81E2F2CF81E14C
:1024F000F0CF87E2EECF8AE2ECCF80E1EACF84E250
:10250000E8CF88E2E6CF86E2E4CF81E3E2CF83E35F
:10251000E0CF80E2DECF809154059091550508957B
:10252000909355058093540508958091530508951F
:1025300090915305892B809353050895982F90957A
:102540008091530589238093530508958091520506
:102550000895809150059091510508956115710578
:1025600059F0FB0130E020E070E060E0241735070F
:1025700019F06115710511F0CB010895A081B181A9
:10258000A817B90709F4BF012F5F3F4F3696EECF6A
:102590008091560581111CC060D266D29093490586
:1025A000809348050E94D11C0E94E31C90934D0526
:1025B00080934C050E9460210E94672190934B05F7
:1025C00080934A0581E08093560590E080E008956D
:1025D00084EF9FEF08958F929F92AF92BF92CF9218
:1025E000DF92EF92FF920F931F93CF93DF9300D070
:1025F00000D000D01F92CDB7DEB71A861986188694
:102600001F821E821D821C821B821A821982809167
:10261000560507EF1FEF882309F49CC08E010D5F5C
:102620001F4F9E012B5F3F4FAE01495F5F4FBE01C1
:10263000675F7F4F90E080E00E94E4228C0100976A
:1026400021F00596029708F0DBC029853A8521150F
:10265000310509F402C1ED80FE804B815C81B70138
:10266000640F751F8F8198858617970708F4F5C04A
:10267000E20EF31ED7019C91903C09F07FC04230DE
:10268000510508F47BC011968C91409154055091EE
:102690005505452B09F49CC0913F08F071C02CE111
:1026A000290F2D3008F48BC02DE2290F203108F4BA
:1026B00089C0903C21F48150823008F483C088E3C3
:1026C000890F8B3008F481C094E4C92E92E1D92E91
:1026D000EEE2F2E16D817E81AE014F5F5F4F898551
:1026E0009A8519955C01C114D104A1F189809A8061
:1026F0008114910479F18B819C818815990508F4E6
:1027000087C010E000E04B815C8170E060E0C701B1
:102710000E94DB3701151105E9F449815A81698569
:102720007A858D819E81680F791FC501F601199503
:10273000E980FA800D811E812F81388549855A856F
:102740006FEF7FEF81E090E00E947F228C01892B68
:1027500009F056C0C8012A960FB6F894DEBF0FBE26
:10276000CDBFDF91CF911F910F91FF90EF90DF9040
:10277000CF90BF90AF909F908F90089580E085CFCD
:1027800030E020E0220F331FF901E85BFA4F01909F
:10279000F081E02D309709F497CF892F90E01995BB
:1027A000009709F491CFDC011296ED91FC911397FB
:1027B0001496CD90DC90309709F08CCF1FC021E0AB
:1027C00030E0E0CF22E030E0DDCF23E030E0DACFD0
:1027D000D12CC12CE6E3F2E19F3F09F07BCFE091E1
:1027E0004805F0914905309721F4C90104EF1FEF26
:1027F0000CC08FEF90E019950097A9F604EF1FEF3A
:1028000089859A85009709F4A5CF0E94D324A2CF89
:102810000E94AE238C0189859A850E94D32470E0A2
:1028200060E0C4010E94472398878F830E947C2226
:102830009E838D836F8178856115710559F0C8017C
:102840000E945F269A87898706EF1FEF892B09F080
:1028500058CF59CF08EF1FEF56CF08EF1FEFD0CF5B
:1028600020915605222319F020E00C94E81C87EFF4
:102870009FEF0895809154059091550508950E9409
:102880006C210E94C620F5D0E8E4F5E088E0DF0185
:102890001D928A95E9F71092560590E080E0089520
:1028A0000C94241F21E040E050E0BA010C94E81C95
:1028B00086E090E0FA019183808390E080E00895C3
:1028C00047E050E06CE573E049CEDF92EF92FF9273
:1028D0000F931F93CF93DF938A01EC01C60FD71F8D
:1028E000E0905A05F0905B05D9800E949623D81697
:1028F000190678F082E090E0F801918380838EEFF2
:102900009FEFDF91CF911F910F91FF90EF90DF909C
:102910000895EF2841F482E090E0F80191838083EC
:1029200084EF9FEFEECF89818093590590E0019667
:10293000F8019183808390E080E0E3CFCF93DF9331
:10294000EA010E94D51F882321F00E94A3230E9440
:10295000D61F82E090E0998388838BEF9FEFDF9111
:10296000CF910895CF93DF93EB0186E0FB011192A5
:102970008A95E9F78FEF8883D8DD8983E7DD8A833D
:10298000E8DD9D838C83DF91CF910895CF93DF9312
:10299000EA010E94D81F811109C082E090E099836A
:1029A000888385EF9FEFDF91CF91089590E080E0DD
:1029B000B7DD81E090E09983888390E080E0F3CFF9
:1029C0000F931F93CF93DF93EA018C01060F171F1C
:1029D0000E94D81F81110BC082E090E09983888308
:1029E00085EF9FEFDF91CF911F910F910895F8012F
:1029F0008181823038F082E090E0998388838EEF85
:102A00009FEFF0CF81E090E08BDD88E090E099834C
:102A1000888390E080E0E6CFCF93DF930097D1F4F6
:102A2000EB01FB01329686E0DF011D928A95E9F702
:102A30008FEF888385E089831A820E9496238B8397
:102A40000E9495239D838C8381E08E838F83DF9109
:102A5000CF910895DF91CF9117CD80E694E19093C7
:102A60005805809357050895809157059091580512
:102A700008951092580510925705089580915A05AF
:102A800090915B050895411105C06115710581059F
:102A9000910561F060935A0570935B0580935C0526
:102AA00090935D0540935E0581E0089580E0089570
:102AB000FF920F931F93CF93DF938A01EC01C60F10
:102AC000D71FF9800E949623F816190668F082E055
:102AD00090E0F801918380838EEF9FEFDF91CF919B
:102AE0001F910F91FF9008956C817D818E819F8150
:102AF0004B81C9DF811108C082E090E0F801918329
:102B0000808384EF9FEFEACF89818093590590E01D
:102B10000196F8019183808390E080E0DFCFCF932E
:102B2000DF93EA01FC01E60FF71F6481758186815E
:102B300097814381A8DF811109C082E090E09983E9
:102B4000888384EF9FEFDF91CF91089581E090E03B
:102B50009983888390E080E0F6CFEAE5F5E0408154
:102B6000518162817381480F511D611D711D408328
:102B70005183628373830895CF93C09159054C2F7D
:102B800050E060915A0570915B0501960E94D23722
:102B90008C2FE3DF10925905CF910895009799F497
:102BA00080915A0590915B052FEFFB012083892BC3
:102BB00059F02091590530E02F5F3F4F241735071A
:102BC00019F4CB01D9CF60CC0895009799F4809186
:102BD0005A0590915B052FEFFB012083892B59F05B
:102BE0002091590530E02F5F3F4F2417350719F426
:102BF000CB01C2CF49CC089523E1AC01249FC00191
:102C0000259F900D1124E0916305F0916405E80F74
:102C1000F91F238134812250310981E022303105AE
:102C200008F080E008950F931F93CF93DF930091F6
:102C3000650510916605D0E0C0E080E00C171D0727
:102C400049F491E0811190E0892FDF91CF911F919C
:102C50000F9108958111F5CFCE01CEDF2196EECFF1
:102C6000A0916305B0916405109729F12091650545
:102C70003091660582179307F0F453E1589F900155
:102C8000599F300D1124A20FB31FED91FC911197A4
:102C9000309789F012968C91681768F48DE0689FE0
:102CA000E00DF11D112480819181892B21F081E0BB
:102CB0009281491708F080E008959C0143E1429F0A
:102CC000C001439F900D1124E0916305F0916405CC
:102CD000E80FF91F8385823091F481E090E06581EF
:102CE000768140911603509117036417750711F40C
:102CF00090E080E0892B19F081E0232B09F080E03F
:102D00000895FC01A081B1818DE0689FA00DB11DE7
:102D1000112413964D915C9185859685489F90016D
:102D2000499F300D589F300D1124C9010196611142
:102D300003C0478144FD04960895EF92FF920F93DC
:102D40001F93CF93DF93EA01FC01E60FF71F028187
:102D50001381E480F5804F2D6E2DC80181DF811134
:102D60000DC082E090E0998388838EEF9FEFDF9122
:102D7000CF911F910F91FF90EF900895C8013CDF14
:102D8000882339F082E090E09983888388EF9FEF71
:102D9000EECF10931D0300931C03E0921E03F092EC
:102DA0001F0381E090E09983888390E080E0DFCF8B
:102DB000CF92DF92EF92FF920F931F93CF93DF9307
:102DC0007A01EC01C60FD71FC0901C03D0901D03E1
:102DD00000911E0310911F03412F602FC60140DF99
:102DE000811110C082E090E0F701918380838AEF27
:102DF0009FEFDF91CF911F910F91FF90EF90DF90A8
:102E0000CF900895C601F8DE882341F082E090E07B
:102E1000F7019183808388EF9FEFEBCF4C815D8139
:102E20006E817F819A8189818F3F41F082E090E0BD
:102E3000F701918380838EEF9FEFDBCFE3E1EC9D81
:102E40009001ED9D300D1124E0916305F091640532
:102E5000E20FF31F0190F081E02D2DE0029FE00DC5
:102E6000F11D11240190F081E02D27E0129FE00D6B
:102E7000F11D1124808391838B818283438354834A
:102E8000658376831F5F10931F0381E090E0F70155
:102E90009183808390E080E0ACCFEF92FF920F931C
:102EA0001F93CF93DF937A018C01060F171FC091F8
:102EB0006305D0916405209781F021E030E0F801AE
:102EC000828193814091650550916605841795072D
:102ED00010F030E020E0232B71F482E090E0F70165
:102EE000918380838EEF9FEFDF91CF911F910F91A0
:102EF000FF90EF90089543E1489F9001499F300D66
:102F00001124C20FD31F78DE882341F082E090E0C5
:102F1000F7019183808388EF9FEFE6CFF80124814A
:102F2000358120383105C8F687818111D6CF41819E
:102F3000842F90E08F7E009741F082E090E0F701CF
:102F40009183808386EF9FEFCFCF4F833E832D8386
:102F5000268128871986223010F421E0288721E075
:102F600030E0F70131832083BFCF88E090E0FA01A1
:102F70009183808390E080E00895FB018FEF808350
:102F800081E181838FEF9FEF9383828380E890E0DC
:102F900095838483168217820895FB018FEF8083C7
:102FA00091E0918382839383848384E3858381E0AA
:102FB00090E097838683089582E090E0FA01918300
:102FC000808380EF9FEF0895DF92EF92FF920F933F
:102FD0001F93CF93DF93EA01FC01E60FF71F818176
:102FE000813071F082E090E0998388838FEF9FEFCA
:102FF000DF91CF911F910F91FF90EF90DF90089597
:1030000082819381D4802581E680F78000916305D9
:10301000109164050115110539F482E090E099835F
:1030200088838CEF9FEFE4CF409165055091660552
:103030008417950738F082E090E0998388838EEFBB
:103040009FEFD6CF892B39F082E090E09983888377
:1030500086EF9FEFCDCF8D2D8D7FB1F72130A1F77A
:1030600081E0D11006C091E0E916F10431F080E072
:1030700004C0E2E0EE16F104D0F3882329F390E0D7
:1030800080E0BADD882339F082E090E0998388837C
:1030900088EF9FEFADCFF801D38681E08487F68675
:1030A000E586108A178681E090E09983888390E016
:1030B00080E09ECF4DE050E066E873E04FCA8F920B
:1030C0009F92BF92CF92DF92EF92FF920F931F9346
:1030D000CF93DF93EA01FC01E60FF71F8281938112
:1030E0000481B580E0916305F0916405309791F417
:1030F00082E090E0998388838CEF9FEFDF91CF91FE
:103100001F910F91FF90EF90DF90CF90BF909F9015
:103110008F90089520916505309166058217930779
:1031200038F082E090E0998388838EEF9FEFE6CFBE
:1031300023E1289F6001299FD00C1124EC0DFD1D77
:10314000E080F180E114F10499F28281081748F7D8
:103150008DE0089F80011124E00EF11EF7018081AF
:103160009181892B29F6BB20E1F2F7E0BF9E400157
:103170001124C4010E949A24F70191838083E09175
:103180006305F0916405EC0DFD1D0190F081E02DCB
:10319000E00FF11F80819181009739F482E090E087
:1031A000998388838DEF9FEFA9CFA40170E060E041
:1031B0000E94DB378091630590916405C80ED91E8B
:1031C000F60180819181080F191FF801B28281E018
:1031D00090E09983888390E080E090CFAF92BF9297
:1031E000CF92DF92FF920F931F93CF93DF93EA0169
:1031F000FC01E60FF71F82819381F4800091630543
:10320000109164050115110581F482E090E0998325
:1032100088838CEF9FEFDF91CF911F910F91FF90EB
:10322000DF90CF90BF90AF900895209165053091C9
:1032300066058217930738F082E090E099838883CF
:103240008EEF9FEFE8CF2FEF2F0D2C3FA8F723E154
:10325000289F6001299FD00C11240C0D1D1DF80121
:1032600080819181892B89F6FDE0FF9E5001112418
:10327000C5010E949A24F80191838083E09163053F
:10328000F0916405EC0DFD1D80819181009739F46A
:1032900082E090E0998388838DEF9FEFBCCFA501FA
:1032A00070E060E00E94DB37E0916305F091640517
:1032B000EC0DFD1DF28281E090E09983888390E01F
:1032C00080E0A9CFCF92DF92EF92FF920F931F93EE
:1032D000CF93DF93860F971FFC01028113818091AA
:1032E000630590916405892B81F082E090E0FA01FA
:1032F000918380838CEF9FEFDF91CF911F910F918E
:10330000FF90EF90DF90CF900895C801B0E0A0E06B
:103310000197A109B1098F3F9F4FA105B10540F069
:1033200082E090E0FA01918380838EEF9FEFE4CFFB
:103330007A0183E1809F6001819FD00C1124C60136
:103340000E949A24EC01009741F482E090E0F7019A
:10335000918380838DEF9FEFCFCFA60170E060E077
:103360000E94DB37D0936405C09363051093660514
:103370000093650590E080E02FEF3FEF41E061E0D2
:1033800070E08017910741F481E090E0F7019183AC
:10339000808390E080E0B0CF3A8B298B1B864C87EE
:1033A0007E876D87188A1F8601966396EACFEF9213
:1033B000FF921F93CF93DF93EC0110E0F12CE12CEF
:1033C0006A811617B0F083E0689FB0011124AE0146
:1033D0004F5E5F4FC7010E94FF24009721F02FEF3F
:1033E0003FEF3A8B298BDF91CF911F91FF90EF90A8
:1033F0000895612FCE0185DC61E070E00E944723D3
:10340000E816F90608F47C011F5FDACFF8942091E2
:1034100061053091620581E02115310509F080E0F8
:10342000232B09F0789408952F923F924F925F9248
:103430006F927F928F929F92AF92BF92CF92DF92C4
:10344000EF92FF920F931F93CF93DF933C01660E91
:10345000771EF301828193814C01B12CA12CC09184
:103460006305D0916405209769F021E030E0609118
:103470006505709166058617970710F030E020E02B
:10348000232BD1F482E090E0FA01918380838EEFC8
:103490009FEFDF91CF911F910F91FF90EF90DF9001
:1034A000CF90BF90AF909F908F907F906F905F90E4
:1034B0004F903F902F900895809220039092210387
:1034C000A0922203B092230363E1689F9001699F59
:1034D000300D1124C20FD31FF3018181833040F0DE
:1034E00082E090E0FA019183808386EF9FEFD1CF55
:1034F0002A012B813C81232BF1F4288139819F8182
:1035000091FF2EC0232B09F46FC0209168059A818A
:10351000422F490F5527551FBA0141E050E061384D
:10352000710514F050E040E0452B09F45DC02A8796
:10353000920F909368058150823008F481C066DF55
:10354000882309F4D8C0F3018181813009F48DC04A
:1035500008F47BC0823009F4C6C090E080E0ADC0C2
:10356000232B09F441C0209167059A81E22FE90FCE
:10357000FF27FF1F41E050E0ED3FF10514F050E060
:1035800040E0452B89F12A87920F90936705D3CFAE
:10359000A081B181A20FB31F11966C91060F111D6E
:1035A0000196295F3F4F8417950794F38D859E857B
:1035B000089F1001099F300C189F300C1124C11472
:1035C000D104D1F48F8184FF17C00E949523F5E0C8
:1035D0002F0E311C21E08215930508F420E0A7018D
:1035E000435F5F4F21110EC082E090E0F2019183B2
:1035F000808387EF9FEF4DCF0E9495232FEF221AF4
:10360000320AE8CF88819981E80EF91EF701148308
:103610000383FFEFCF1ADF0A7A018A818C151D041C
:1036200009F00CF48CCFE881F981EE0DFF1D428189
:1036300050E030E020E010E000E090E080E0B3CF28
:10364000F12CE12CD12CC12CE8CF81E090E09C83BF
:103650008B83E9DA882309F480CF81E090E00E942F
:10366000901280E40E949E1278CF89899A890196EF
:1036700061F083E090E09C838B8382E090E00E9485
:10368000901280E40E94981268CF8D819E812091D3
:1036900016033091170382179307D1F460911A0330
:1036A00070911B03AE014F5E5F4F809118039091A4
:1036B00019030E941E260097E1F2789422E030E080
:1036C000F20131832083892B99F08DEF9FEFE1CEBA
:1036D00089288A288B2869F6029758F6CE0167DE7A
:1036E000188A1F86E8CF82E090E09C838B8335CFD9
:1036F00090E080E0CECE82E090E0F2019183808382
:1037000085EF9FEFC6CE8F929F92AF92BF92CF92DE
:10371000DF92EF92FF920F931F93CF93DF93EA0113
:103720008C01060F171FF8018181833098F082E029
:1037300090E09983888386EF9FEFDF91CF911F916F
:103740000F91FF90EF90DF90CF90BF90AF909F9040
:103750008F9008958091630590916405892B61F0A5
:1037600081E090E02091650530916605232B11F4EE
:1037700090E080E0892B39F482E090E0998388839F
:103780008EEF9FEFDACF42DE882309F4E0C0F80124
:103790008181813009F496C0E8F0823099F420915B
:1037A000650530916605E0916305F091640590E050
:1037B00080E041E050E02817390709F0BEC033DA55
:1037C000811117C0789481E090E09983888390E01C
:1037D00080E0B3CF2091650530916605E0916305E7
:1037E000F091640590E080E041E050E0281739074F
:1037F00041F481E090E00E94901280E40E949E12C9
:10380000E1CF63817481672B11F054834383019668
:103810007396ECCFE0916305F0916405E00FF11F22
:103820002381348122303105D9F4218932892F3F17
:103830003F4FB1F425813681409116035091170313
:103840002417350761F5AF014F5E5F4F60911A0392
:1038500070911B0380911803909119030E941E26FA
:10386000EFEFCE1ADE0AEE0AFE0A0D5E1F4F409100
:1038700065055091660570E060E0C416D506E60661
:10388000F70644F5009731F27894892B09F49BCF21
:1038900082E090E0998388838DEF9FEF4ECFC11433
:1038A000D104E104F104E1F622303105C8F6CF017C
:1038B0007EDDE0916305F0916405E00FF11F108A51
:1038C0001786CECF10E000E090E080E0C12CD12C34
:1038D0007601CDCF0097C1F610E000E0812C912C4D
:1038E000540183E0E82EF12C1AC0E0916305F091B9
:1038F0006405E00FF11F83819481029749F4F482FB
:10390000E38282E090E00E94901280E40E9498128C
:10391000FFEF8F1A9F0AAF0ABF0A0D5E1F4F8091FB
:10392000650590916605B0E0A0E088169906AA06A4
:10393000BB06DCF290E080E0A7CF63817481623047
:10394000710511F4548343830196739634CF82E05A
:1039500090E09983888385EF9FEFEFCE0097B9F4CD
:103960008FEFFB018083209120033091210343E1FD
:10397000429FC001439F900D1124E0916305F09197
:103980006405E80FF91F8285FB01818308950C947B
:10399000441288E090E0FA019183808390E080E017
:1039A00008951092620510926105E3E6F5E086E065
:1039B000DF011D928A95E9F78AE598E19093600509
:1039C00080935F05089580915F059091600508954B
:1039D0002F923F924F925F926F927F928F929F921F
:1039E000AF92BF92CF92DF92EF92FF920F931F930D
:1039F000CF93DF93CDB7DEB72F970FB6F894DEBF26
:103A00000FBECDBFF894E0916105F091620531964B
:103A1000F0936205E09361057894409063055090BF
:103A200064054114510409F40CC2E0916505F0915C
:103A30006605EF2B09F405C22D8749875A876B87E6
:103A40007C8798878F831201B12CA12C10E000E0B5
:103A50008091650590916605A816B90618F40115C0
:103A6000110529F1F8948091610590916205019703
:103A700090936205809361057894C8012F960FB6E4
:103A8000F894DEBF0FBECDBFDF91CF911F910F9194
:103A9000FF90EF90DF90CF90BF90AF909F908F906E
:103AA0007F906F905F904F903F902F90089571019D
:103AB000E418F508D10117968C91179781FD54C031
:103AC00013968D919C911497039709F04DC015960C
:103AD0008D919C91EF81F8858E179F0709F044C066
:103AE000B50190E080E07FD48A8320916305309116
:103AF00064053D832C833D85332309F44CC04C8100
:103B00005D81452B09F49AC1809165059091660508
:103B1000A816B90608F092C1C501CFD88823E9F0EC
:103B20006C817D816E0D7F1D7D836C83DB011F9613
:103B30008D919C91892B89F0D12CC12CF12CE12CF9
:103B4000AC81BD8112968C9112978E151F0409F0DD
:103B500094F450961C921E921F972A81222321F0E2
:103B6000B50190E080E041D43FEFA31AB30A43E1EE
:103B7000240E311C6DCFAC81BD81ED91FC91EC0D1B
:103B8000FD1D858196810FD7BFEFEB1AFB0AEDE093
:103B9000CE0ED11CD5CFEC81FD81309709F44EC1FA
:103BA0008091650590916605A816B90608F046C192
:103BB000EE0DFF1DFF87EE87C5017FD88B8388231D
:103BC00039F1AE85BF851F968D919C9150970196D6
:103BD00021E01D964D915C918417950709F020E036
:103BE0002E831982712C10E000E0AE85BF851296FD
:103BF0008C91781608F45DC0EE85FF8587859089E5
:103C00000196658576850E947B37908B8787A5CF47
:103C1000B1E0BE83E6CF992493946BC08BD6F601B6
:103C20009683858382C0D601ED90FC90B7E06B9EB1
:103C3000E00CF11C1124F7016381748180818F3FB6
:103C400061F121E030E002C0220F331F8A95E2F7D4
:103C5000C901092E000CAA0BBB0BFB01408151814D
:103C60006281738184239523A623B72321E0892BC6
:103C70008A2B8B2B09F420E0D4012C93D7011196C9
:103C80008C91F60123853485820F932F911D880E28
:103C9000991E1486138663949BC0418150E0C40131
:103CA0000E94D237EBCF998206EF1FEFC5C0198271
:103CB000C3C0F981F111A0CFEDE07E9E7001112407
:103CC000AE85BF85CD90DC90CE0CDF1C15D49D83D6
:103CD0008C83BB81BB2309F49ECF81E0EE85FF85F9
:103CE00027853089232B09F080E0982E882309F45A
:103CF00058C0672D8E859F8504D8D60118969C9351
:103D00008E93179761E070E0C2D4EE85FF8521891C
:103D100032892F3F320709F481CFBC01C901CFD7C7
:103D2000D60116969C938E931597D60115968D9174
:103D30009C911697009709F4B6CFEC81FD818E0F08
:103D40009F1F1A969C938E931997AE85BF85ED9110
:103D5000FC911197EE0EFF1EF70121853285148626
:103D600013861A968C91870DD9018D93711016C008
:103D7000EE85FF85878184FF11C049855A856B8553
:103D80007C85F9014183528363837483F7018385C2
:103D900094850496A80FB91F14861386F701B2877D
:103DA000A187D60115968D919C911697892B09F4C0
:103DB00043C0EE85FF852581368180911603909161
:103DC00017032817390779F019968D909C90612C6C
:103DD000D60112968C911297681608F424CF1A9681
:103DE0009C928E921997BE81BB2309F460CF61E04B
:103DF00070E0F601878190854AD4D6011796ED9040
:103E0000FC90189715964D915C91E1E0F0E0BA8135
:103E1000BB2311F0F0E0E0E00C811D819C01B501B5
:103E2000882799278E1B9F0B6AD38C01892B21F041
:103E3000F60185819681B7D57394D7CE0FEF1FEF2A
:103E40008CCE10E000E00ECE2F923F924F925F9208
:103E50006F927F928F929F92AF92BF92CF92DF929A
:103E6000EF92FF920F931F93CF93DF93809163059F
:103E70009091640510E000E0892BA9F0C7DA0AEF01
:103E80001FEF882381F02090650530906605C09172
:103E90006305D0916405D12CC12C10E000E02C14F6
:103EA0003D04A9F47894C801DF91CF911F910F913F
:103EB000FF90EF90DF90CF90BF90AF909F908F904A
:103EC0007F906F905F904F903F902F900895C60124
:103ED0000E945D16882309F18B819C810397E9F488
:103EE0008F859889892BC9F0B60190E080E07BD25C
:103EF00021E030E0882311F030E020E04424552414
:103F0000421A530AB12CA12C912C812C8A8188153C
:103F1000190409F038F4188A1F864FEFC41AD40A1E
:103F20006396BDCFE881F981EA0DFB1D85819681FD
:103F3000892BA1F161E070E087819085A8D33C01D5
:103F4000DBD28C01E881F981EA0DFB1D8185928528
:103F500025813681200F311FAC01421B530B9A0182
:103F600047815085421B530B70E060E00E94DB37B5
:103F7000E881F981EA0DFB1DE780F08445815681D7
:103F80009301B601C201BBD28C01892B39F0E881C3
:103F9000F981EA0DFB1D8581968105D55FEF851AB4
:103FA000950A8DE0A80EB11CB1CF30CA789408955F
:103FB0002F923F924F925F926F927F929F92AF9219
:103FC000BF92CF92DF92EF92FF920F931F93CF9306
:103FD000DF9300D000D0CDB7DEB70091630510911C
:103FE0006405992493940115110509F43EC0A0902D
:103FF0006505B09066050ADA982E8823B1F1109213
:104000006405109263051092660510926505109282
:104010006705109268058FEF9FEFDC018093200306
:1040200090932103A0932203B093230378947FD32A
:104030001E830D83C12CD12C7601C501B0E0A0E018
:1040400089839A83AB83BC8322242A94322C89816E
:104050009A81AB81BC81C816D906EA06FB06F4F04A
:10406000C801A1D480E40E949E12892D26960FB625
:10407000F894DEBF0FBECDBFDF91CF911F910F919E
:10408000FF90EF90DF90CF90BF90AF909F907F9088
:104090006F905F904F903F902F900895AD81BE81BB
:1040A00015968D919C9116972091160330911703C8
:1040B00082179307D1F451968D919C91EED5ED81A5
:1040C000FE8180819181B12CA12C412C512C320197
:1040D000892B89F5BFEFCB1ADB0AEB0AFB0AED81CE
:1040E000FE817396FE83ED83B2CFC114D104E10447
:1040F000F10429F7029718F7ED81FE8181899289F1
:104100008F3F980709F029D5AD81BE8152963C9228
:104110002E925197D4CF8A0D9B1DDC018D919C91DD
:10412000009709F040D4BFEF4B1A5B0A6B0A7B0A79
:10413000EDE0AE0EB11CAD81BE818D919C911197C9
:1041400012964C9150E070E060E044165506660609
:1041500077060CF328D4BECFCF93DF93EA0128DF94
:10416000811109C082E090E09983888385EF9FEFF9
:10417000DF91CF91089581E090E00E94901281E05C
:1041800090E09983888390E080E0F2CF11DF109275
:10419000600510925F05089542E050E064ED73E021
:1041A0000C94AE12FF920F931F93CF93DF938A016B
:1041B000EC01C60FD71FF980B9D20897F816190677
:1041C00071F068F082E090E0F801918380838EEFD7
:1041D0009FEFDF91CF911F910F91FF9008956C8118
:1041E0007D818E819F814B810E944315811108C082
:1041F00082E090E0F8019183808384EF9FEFE9CF24
:10420000F9800E943E154F2D50E0BE01685F7F4F40
:104210000E94D23789810E94AD1581E090E0F801BB
:104220009183808390E080E0D4CFDF92EF92FF9281
:104230000F931F93CF93DF938A01EC01C60FD71F13
:104240000E943E157C01D98071D2DD2059F0029781
:1042500021E030E0D816190619F010F030E020E027
:10426000232B79F482E090E0F801918380838EEF34
:104270009FEFDF91CF911F910F91FF90EF90DF9013
:104280000895EF2841F482E090E0F8019183808363
:1042900084EF9FEFEECFF9800E943E154F2D50E046
:1042A000BE016E5F7F4F0E94D23789810E94AD159B
:1042B00081E090E0F8019183808390E080E0D9CFA5
:1042C0008CEC90E290936A05809369050895809143
:1042D000690590916A0508950895FC011182108284
:1042E000938382830895DB011D921C92DC01129658
:1042F000ED91FC9113977183608313967C936E9379
:1043000012970895FC0180819181DB018D939C932C
:10431000A081B181109741F08D919C919183808310
:10432000892B11F4F383E2830895FC01808191814C
:10433000DB018D939C93892B11F4738362837183CA
:1043400060830895FC011182108293838283089513
:10435000CF93DF931F921F92CDB7DEB71A821982D7
:10436000F894BE016F5F7F4F80E795E0CBDF8981D6
:104370009A81009709F017D389819A81892B89F74F
:10438000BE016F5F7F4F84E795E0BCDF89819A8132
:10439000009709F008D389819A81892B89F778944D
:1043A0000F900F90DF91CF910895CF93DF931F92DD
:1043B0001F92CDB7DEB71A821982F894BE016F5FE3
:1043C0007F4F8CE695E09EDF89819A81009709F006
:1043D000EAD289819A81892B89F778940F900F907E
:1043E000DF91CF91089581E0089590E080E00895F5
:1043F000EF92FF920F931F93CF93DF931F921F9221
:10440000CDB7DEB71A82198280916B0507EF1FEFD7
:104410008823A1F1F894BE016F5F7F4F84E795E098
:1044200071DF789489819A81EE24E394F12C892BB1
:1044300051F4F894BE016F5F7F4F80E795E062DF33
:104440007894F12CE12C89819A810EEF1FEF00976F
:10445000A9F0FC014281538164E070E076D68C01C2
:10446000892B61F0F89469817A81C701880F991FBF
:10447000880F991F80599A4F58DF7894C8010F9080
:104480000F90DF91CF911F910F91FF90EF900895C2
:104490000F931F93CF93DF9300D01F92CDB7DEB75A
:1044A0001C821B821A82198280916B0507EF1FEF15
:1044B0008823C1F0AE014D5F5F4F64E070E0CE0134
:1044C0000196B6D68C01892B69F4E981FA818B813A
:1044D0009C8193838283F89469817A818CE695E04C
:1044E00002DF7894C8010F900F900F900F90DF912A
:1044F000CF911F910F910895BBD7049608958F9285
:104500009F92AF92BF92CF92DF92EF92FF920F9362
:104510001F93CF93DF931F921F92CDB7DEB71A82FE
:104520001982BC016F5F7F4F6330710598F0AA2438
:10453000AA94BA2CC5010F900F90DF91CF911F91D3
:104540000F91FF90EF90DF90CF90BF90AF909F9032
:104550008F9008954115510551F3480159018A0181
:104560006C01CADF8815990511F7E114F104F9F21D
:104570008E0D9F1DA816B906D0F280916B05882379
:10458000F1F0F894B501645071099701AE014F5FE5
:104590005F4FC8010496E1D65C01892B71F48981D3
:1045A0009A81F80193838283C601880F991F880F2F
:1045B000991FB80180599A4F96DE7894BBCF87EF48
:1045C000A82EBB24BA94B6CFAF92BF92CF92DF92FF
:1045D000EF92FF920F931F93CF93DF931F921F923F
:1045E000CDB7DEB71A821982892B09F047C0611551
:1045F000710509F443C04115510509F43FC0211567
:10460000310509F43BC001151105C1F180916B051D
:104610008823B9F179016A015B01F894BE016F5FEB
:104620007F4F8CE695E06EDE789489819A810097C1
:1046300059F1DC0112966D917C91A8010496A6D6E1
:104640008C01E981FA81D501ED93FC9382819381FC
:104650000496F601918380834FDFD7018D939C935D
:10466000C8010F900F90DF91CF911F910F91FF9094
:10467000EF90DF90CF90BF90AF9008950FEF1FEFB6
:10468000EFCF07EF1FEFECCF0EEF1FEFE9CFCF9388
:10469000DF93EC01672B71F4F4D68C179D0760F063
:1046A000E7D62496C80FD91FE6D68C0F9D1FDF9141
:1046B000CF910895E3D6F1CF90E080E0F8CF0F934B
:1046C0001F93CF93DF9320916B0521112BC08B019A
:1046D000EC0180E795E001DE84E795E0FEDD8CE605
:1046E00095E0FBDD97D00097C1F4CBD670E060E099
:1046F000CEDF44E253E062E070E081D1009769F4DC
:104700008091240390912503CED6B801CE0103D524
:10471000009719F421E020936B05DF91CF911F9151
:104720000F91089584EF9FEFF8CFA8C6AAC6CF9344
:10473000DF93AAD6EC01892B11F40ADE36DECE0116
:10474000DF91CF910895CF93DF939ED6EC01892B13
:1047500009F4FEDDCE01DF91CF910895809124030D
:10476000909125030895CF93DF9380916B05D0E05E
:10477000C0E08823D1F09CD6EC01892BB1F4E8DDB0
:1047800014DE8091240390912503E7D1E8D2EC0157
:10479000892B59F480E795E0D5DD84E795E0D2DDFB
:1047A0008CE695E0CFDD10926B05CE01DF91CF91C5
:1047B0000895EF92FF920F931F93CF93DF93EC0135
:1047C0007A018B010F5F1F4F0E9DA0010F9D500DB1
:1047D0001E9D500D112470E060E00E94DB3790E0D8
:1047E00080E0F0E0E0E02FEFE816F90639F4DF9121
:1047F000CF911F910F91FF90EF9008951A82198227
:104800002883309711F0D283C1830196FE01C00F37
:10481000D11FEACFCF92DF92EF92FF920F931F93B7
:10482000CF93DF9305E916E00C7F43E050E066E2AA
:1048300073E08CE293E01CD486E2E82E83E0F82E4D
:104840009CE2C92E93E0D92EC4E1D7E0D7014D9167
:104850005D917D01F601619171916F01198308836A
:104860005D834C835B834A837F836E839B012F5FD1
:104870003F4F249FC001259F900D349F900D112420
:10488000998788870115110511F0C80192DF888585
:104890009985080F191F2A96FCE2EF16F3E0FF0630
:1048A000A9F6EAE7F5E088E191E0DF019C011D92BD
:1048B00021503040E1F7109279051092780510925E
:1048C0003307109232071092370710923607109272
:1048D000350710923407109239071092380710925A
:1048E0003B0710923A0710923D0710923C07109236
:1048F00041071092400710923F0710923E07109216
:1049000043071092420710924507109244071092F5
:10491000110710921007109213071092120790E0DF
:1049200080E0DF91CF911F910F91FF90EF90DF908A
:10493000CF9008950097F1F0F894ACE2B3E0E4E191
:10494000F7E030E020E04D915D9148175907A8F05D
:10495000428153814115510581F08AE0829FF00127
:10496000839FF00D1124EC5EF84F808191810097B8
:1049700059F4789490E080E008952F5F3F4F3A9685
:104980002330310501F7F5CFDC0111966D917C9153
:10499000718360834150510953834283FC01219309
:1049A000CF0178940895009749F1DC018E9185300C
:1049B00041F4E0911207F09113073097F9F0CD011F
:1049C00019948530D8F4282F30E0F8948FEF8C9329
:1049D0008AE0829FF001839FF00D1124EC5EF84F76
:1049E0008081918112969C938E931197B183A083BD
:1049F0008281938101969383828378940895CF92E4
:104A0000DF92EF92FF920F931F93CF93DF939C015E
:104A10008DE795E08C7F4115510509F49BC0211568
:104A2000310509F497C06115710509F493C07A0145
:104A3000AB01B9016D5F7F4F6C7F9B012F5F3F4FD3
:104A4000249F8001259F100D349F100D1124F89490
:104A50002091320730913307232B59F420913A07E4
:104A600030913B072115310569F12017310708F016
:104A700058C020913C0730913D07232B91F42091A1
:104A80003A0730913B07820F931F209144073091E2
:104A900045072115310509F441C02017310708F0F9
:104AA00056C07894CFEFDFEF86EF9FEFF701D18309
:104AB000C083DF91CF911F910F91FF90EF90DF9016
:104AC000CF900895C3E0D0E0C0907805D0907905EC
:104AD00025E131E02C193D092017310710F32AE0B8
:104AE0002C9FF0012D9FF00D1124EC5EF84F918367
:104AF00080835583448353834283778366831187FE
:104B00000087009709F055DE0C0D1D1D10937905E7
:104B100000937805789490E080E0C8CFC4E0D0E0BE
:104B2000D3CFC3E0D0E02AE02C9FF0012D9FF00D01
:104B30001124EC5EF84F9183808355834483538323
:104B4000428377836683009729F333DEE3CFC4E0A3
:104B5000D0E0E9CF8FEF9FEFACCF9C010397029796
:104B600008F069C0F89484E09AE0482F50E02417D8
:104B700035070CF44DC091E08AE0829FF001839FDD
:104B8000F00D1124EC5EF84F118210821582148210
:104B900013821282178216829923B1F18091320713
:104BA00090913307892BA9F420913A0730913B0764
:104BB0002115310571F08091780590917905821B5E
:104BC000930B909379058093780510923B07109290
:104BD0003A0780913C0790913D07892BA9F42091D9
:104BE0004407309145072115310571F08091780512
:104BF00090917905821B930B9093790580937805AA
:104C00001092450710924407789490E080E0089550
:104C1000949FF001959FF00D1124EC5EF84F4081B8
:104C20005181452B31F440855185452B11F481503C
:104C30009CCF90E0A1CF8FEF9FEF089541155105D4
:104C400049F1009739F16115710521F1F89420912E
:104C5000100730911107232BB9F4209112073091DE
:104C60001307232B89F490931107809310077093F7
:104C7000130760931207789425E030E090E080E01D
:104C8000FA0131832083089578942FEF3FEF86EF68
:104C90009FEFF6CF8FEF9FEF0895059769F4F89493
:104CA000109211071092100710921307109212071A
:104CB000789490E080E008958FEF9FEF089561155C
:104CC000710519F4F0E0E0E011C08530910581F440
:104CD000E0911007F09111073097A1F3CB010196F5
:104CE0001995009779F3FC0185E08193CF01089530
:104CF0009C01235031092230310520F72AE0289FFA
:104D0000D001299FB00D1124AC5EB84F2D913C917C
:104D10001197232BB9F216962D913C9117972617D0
:104D2000370780F2F89412962D913C911397211534
:104D3000310529F0ED91FC911197309711F4789499
:104D4000C1CF4181528111965C934E93215031091C
:104D500013963C932E93129781937894C7CFE2E9F0
:104D6000F6E08EE7DF011D928A95E9F7EAE7F5E0C4
:104D700088E191E0DF019C011D9221503040E1F774
:104D80001092790510927805E4E1F7E082E3DF0103
:104D90001D928A95E9F7E0E1F7E084E0DF011D92DA
:104DA0008A95E9F790E080E00895CF93DF93C09172
:104DB0003203D0913303CF3FDC0759F472D4909380
:104DC00033038093320397FF09C0D0933303C0931A
:104DD000320384EF9FEFDF91CF91089590E080E060
:104DE000FACF8230910528F48093460790E080E066
:104DF00008958FEF9FEF08954F925F926F927F9289
:104E0000AF92BF92CF92DF92EF92FF920F931F93D8
:104E1000CF93DF931F921F92CDB7DEB71A8219820C
:104E2000009709F479C06115710509F475C02091E6
:104E300032033091330307EF1FEF2F3F3F4F09F449
:104E400045C06B015C01412C512C3201F12CE12C4D
:104E500010E000E09E012F5F3F4FA6014E195F0951
:104E6000B5016E0D7F1D80913203909133037DD487
:104E7000892B09F04BC089819A81009741F4E11494
:104E8000F10429F420914607222309F442C0E80ED8
:104E9000F91EEC14FD04D0F480E8481684E85806A6
:104EA0008EE16806710420F560E070E0CB010E949D
:104EB0006D312AE0420E511C611C711C0A3F4FEFFC
:104EC000140721F0043F8FEF1807A1F4C8010F90D9
:104ED0000F90DF91CF911F910F91FF90EF90DF9096
:104EE000CF90BF90AF907F906F905F904F9008955C
:104EF00001EF1FEF81E090E0013F2FEF120711F06B
:104F000090E080E0892B09F4A5CFE0CF04EF1FEFFC
:104F1000DDCF0AEF1FEFDACF0FEF1FEFD7CF4F92A2
:104F20005F926F927F92AF92BF92CF92DF92EF9299
:104F3000FF920F931F93CF93DF931F921F92CDB7D2
:104F4000DEB71A821982009709F479C061157105DC
:104F500009F475C0209132033091330307EF1FEF3E
:104F60002F3F3F4F09F445C06B015C01412C512C90
:104F70003201F12CE12C10E000E09E012F5F3F4F49
:104F8000A6014E195F09B5016E0D7F1D8091320398
:104F9000909133039DD3892B09F04BC089819A816D
:104FA000009741F4E114F10429F4209146072223EB
:104FB00009F442C0E80EF91EEC14FD04D0F480E4BC
:104FC000481682E458068FE06806710420F560E018
:104FD00070E0CB010E946D312AE0420E511C611C31
:104FE000711C0E3F4FEF140721F0043F8FEF18079D
:104FF000A1F4C8010F900F90DF91CF911F910F91F5
:10500000FF90EF90DF90CF90BF90AF907F906F9028
:105010005F904F90089502EF1FEF81E090E0023F14
:105020002FEF120711F090E080E0892B09F4A5CF53
:10503000E0CF04EF1FEFDDCF0EEF1FEFDACF0FEF62
:105040001FEFD7CF80913203909133038F3F9807A2
:1050500049F01FD3892B49F48FEF9FEF90933303CF
:105060008093320390E080E0089584EF9FEF0895ED
:10507000CF92DF92EF92FF920F931F93CF93DF9324
:1050800021E04115510509F020E04150510921115D
:105090002CC0DC01FB01D12CC12C21E022C03FEF50
:1050A000C31AD30A7D010D911D91E701EA80FB80AF
:1050B000E016F106A8F420813181E280F380F182CC
:1050C000E08233832283ED90FC9011979D01225062
:1050D0003109E901F982E88211961C930E9320E0D0
:1050E0003296C416D506D8F2D2CFDF91CF911F9158
:1050F0000F91FF90EF90DF90CF900895FC01680F23
:10510000791F90E080E0E617F70709F408952191F0
:10511000820F911DF8CF20914707211113C045DE62
:10512000009791F410924D0710924C0710924B0784
:1051300010924A07109249071092480721E02093E5
:105140004707089584EF9FEF0895AF92BF92CF92E3
:10515000DF92EF92FF920F931F93CF93DF9300970D
:1051600009F460C04630510508F45CC0209147073F
:10517000C7EFDFEF222309F449C08C01060F171F88
:10518000F801C080D180C114D10409F44EC0960149
:105190002A5F3F4F4217530708F447C07C018091B4
:1051A0004C0790914D0793838283B6016C5F7F4FCC
:1051B0005801A60EB71EC801A1DFF50191838083B7
:1051C00064E070E0C80118DEEC01892BF9F481E09D
:1051D00090E007DEB601C80104960EDEEC01892BD3
:1051E00091F462E070E0C50107DEEC01892B59F40F
:1051F000C701D9DB80914C0790914D0701969093A0
:105200004D0780934C0790E080E0EBDDCE01DF910D
:10521000CF911F910F91FF90EF90DF90CF90BF90B3
:10522000AF900895CFEFDFEFF1CFC9EFDFEFEECF13
:105230006F927F928F929F92AF92BF92CF92DF92A6
:10524000EF92FF920F931F93CF93DF9300D01F92A3
:10525000CDB7DEB7009709F47AC04115510509F4BE
:1052600076C02091470707EF1FEF222309F44DC0B6
:105270003A017B015C0164E070E0CE0101964FDEF3
:105280008C01892B09F041C009811A810115110592
:1052900009F45AC0480186E0880E911CB701680DD8
:1052A000791D809134039091350309DD6C010097DD
:1052B00009F450C0A70170E060E00E94DB378981EB
:1052C0009A81AB81BC81EC0CFD1CF7018193919319
:1052D000A193B1937F0181E090E083DDB801C70124
:1052E0001EDE892B31F562E070E0C701800F911F4F
:1052F00016DE8C01892BE9F490E080E072DDF50187
:10530000D182C082F30191828082C8010F900F90F8
:105310000F900F90DF91CF911F910F91FF90EF9021
:10532000DF90CF90BF90AF909F908F907F906F90C5
:10533000089590E080E055DDF50111821082F301BF
:1053400011821082C6012FDB09EF1FEFDECF0FEFB6
:105350001FEFDBCF06EF1FEFD8CF0097A1F041156D
:10536000510589F02115310571F0F90136966E1756
:105370007F0748F0DC012D933C93DA01ED93FC9319
:1053800090E080E008958FEF9FEF0895AF92BF9275
:10539000CF92DF92EF92FF920F931F93CF93DF9301
:1053A000009709F45FC04115510509F45BC06530F1
:1053B000710508F457C020914707C7EFDFEF22239C
:1053C00091F1DC01CD90DC9011971296ED91FC915A
:1053D00096012A5F3F4FC9EFDFEF2617370719F510
:1053E000C0914807D0914907209749F521E030E066
:1053F00030934907209348077A018C01F0934B07BB
:10540000E0934A075601B4E0AB0EB11CB50176DE5D
:105410000A0D1B1DF801208131818217930729F5A0
:10542000D701CD92DC92CE01DF91CF911F910F91E8
:10543000FF90EF90DF90CF90BF90AF9008952091B4
:105440004A0730914B072F5F3F4FCCEFDFEFE2175A
:10545000F30790F2CBEFDFEF2E173F0768F2D0E0B3
:10546000C0E0CACFCFEFDFEFDECFC3EFDFEFDBCFA0
:1054700084E090E0089582E090E008958CEF9FEF43
:10548000089580E290E0089510924D0710924C0725
:1054900010924B0710924A07109249071092480742
:1054A00090E080E00895909335038093340308954D
:1054B00080914707882391F0C5DD009789F4109209
:1054C0004D0710924C0710924B0710924A0710920A
:1054D00049071092480710924707089590E080E02E
:1054E0000895009749F06115710531F0FC011182B2
:1054F0001082FB01118210820895F3CF089526E0F7
:1055000030E040E855E260E070E090E080E008D0F4
:1055100061E08DE00E94623360E08DE00C949E3388
:1055200010924F0710924E078930910508F03BC04A
:10553000FC018827E156F54D8F4F0C94B137A82A0E
:10554000B22ABB2AC42ACD2AD42AD72ADA2AE02AA8
:1055500081E090E090934F0780934E078DE597E0B0
:105560000C94BD3482E090E090934F0780934E07F7
:105570008AEF97E0F5CF84E090E090934F07809317
:105580004E0787E998E0ECCF88E090E090934F07D2
:1055900080934E0784E399E0E3CF80E190E090931D
:1055A0004F0780934E07089580E290E0F8CF80E4A3
:1055B00090E0F5CF80E890E090934F0780934E07FE
:1055C00080914E0790914F079160E9CF1F920F9203
:1055D0000FB60F9211240BB60F922F933F934F9358
:1055E0005F936F937F938F939F93AF93BF93EF934B
:1055F000FF938EE19BEF909325018093240180918E
:10560000520790915307019721F461E08DE00E94C9
:105610009E33BFD0FF91EF91BF91AF919F918F913A
:105620007F916F915F914F913F912F910F900BBEA2
:105630000F900FBE0F901F9018958EE19BEF9093E7
:10564000250180932401A3E7B0E08C918E7F8C9399
:10565000E0E2F1E080818C7F8083E1E2F1E0808113
:10566000877E808380818360808380818B7F80833D
:105670008C9181608C930895E3E7F0E080819081C4
:105680009E7F90838170089581E008951092500765
:10569000089568EE73E080E090E01FD690E080E02F
:1056A000089526E030E040E052EC61E070E090E0E8
:1056B00080E036DF8DE597E00E94F333892B29F0F7
:1056C0008DE597E00E940D34F5CF90E080E00895DD
:1056D000CF92DF92EF92FF920F931F93CF93DF93BE
:1056E0006B017A01E901198218828DE597E00E9429
:1056F000F333892B79F18601CC24C39482E0D82E30
:1057000080915007811111C08DE597E00E940D3402
:105710000297B1F7C0925007F801D1928F018881AA
:105720009981019699838883EBCF888199818E1521
:105730009F0580F48DE597E00E940D348F3F980718
:10574000A1F3F80181938F01888199810196998352
:105750008883EBCF90E080E0DF91CF911F910F9194
:10576000FF90EF90DF90CF9008950F931F93CF930A
:10577000DF93EA0189018DE597E00E944D37F8013A
:10578000D183C08390E080E0DF91CF911F910F9192
:1057900008958091510791E0980F909351078823C5
:1057A00049F021E030E03093530720935207809373
:1057B0005107089578940E940F05F894809151073D
:1057C0008150F5CF0F931F93CF93DF931092370A39
:1057D0001092360AB8D593DEC0915A03D0915B037C
:1057E0001982188268EB7BE080E090E00E9404055B
:1057F00070E060E090E080E00E947E03009709F096
:1058000042C00E94CB09F89478948A819B81BC01A4
:10581000685F7F4F0E948103892B71F46FEF7FEFE8
:10582000CB010E9413040E94FE04882329F081E02A
:10583000FE01E355FF4F8083F894FFDE0E940105CF
:10584000882311F080E00BC00E94FE048111FACF82
:1058500081E0FE01E355FF4F90819111F3CF8093DA
:10586000360A78940E948B128C017894C355DF4FCE
:105870008091360A81110CC00E946A0B0E94E204DA
:10588000F89490E080E0DF91CF911F910F910895FF
:105890000E94DF040E9401058823E1F081E08093EB
:1058A000370A9091370A81E0911180E08093360A9F
:1058B0008091370A8111E0DE0130110529F40E9440
:1058C0008B12892B09F4E2DE0E948B128C01DCDE44
:1058D00015DECECF0E94FE048111E0CF81E09881D9
:1058E0009111DDCF80E0DBCF5058BB27AA270ED027
:1058F000FAC1EBD130F0F0D120F031F49F3F11F438
:105900001EF4E0C10EF4E095E7FBADC1E92FFCD138
:1059100080F3BA17620773078407950718F071F4CC
:105920009EF52BC20EF4E0950B2EBA2FA02D0B0185
:10593000B90190010C01CA01A0011124FF27591BD4
:1059400099F0593F50F4503E68F11A16F040A22FDA
:10595000232F342F4427585FF3CF4695379527954B
:10596000A795F0405395C9F77EF41F16BA0B620B4A
:10597000730B840BBAF09150A1F0FF0FBB1F661F91
:10598000771F881FC2F70EC0BA0F621F731F841FD4
:1059900048F4879577956795B795F7959E3F08F0FA
:1059A000B3CF9395880F08F09927EE0F97958795B9
:1059B000089535D108F481E008950CD094C18CD1BC
:1059C00040F083D130F021F45F3F19F04CC1511108
:1059D000D5C178C199D198F39923C9F35523B1F36F
:1059E000951B550BBB27AA2762177307840738F04E
:1059F0009F5F5F4F220F331F441FAA1FA9F333D0AD
:105A00000E2E3AF0E0E830D091505040E695001C60
:105A1000CAF729D0FE2F27D0660F771F881FBB1F1C
:105A2000261737074807AB07B0E809F0BB0B802DF6
:105A3000BF01FF2793585F4F2AF09E3F510568F042
:105A400012C19CC15F3FECF3983EDCF386957795DD
:105A50006795B795F7959F5FC9F7880F911D969544
:105A6000879597F90895E1E0660F771F881FBB1FA0
:105A7000621773078407BA0720F0621B730B840B4D
:105A8000BA0BEE1F88F7E095089546D188F09F572E
:105A900090F0B92F9927B751A0F0D1F0660F771F7A
:105AA000881F991F1AF0BA95C9F712C0B13081F05A
:105AB00064D1B1E0089561C1672F782F8827B85F5E
:105AC00039F0B93FCCF3869577956795B395D9F7BB
:105AD0003EF490958095709561957F4F8F4F9F4FC5
